S012000050726F6A6563744C43442E7372656368
S11300000C942A000C943F000C943F000C943F0085
S11300100C943F000C943F000C943F000C943F0060
S11300200C943F000C943F000C943F000C943F0050
S11300300C943F000C943F000C943F000C943F0040
S11300400C943F000C943F000C943F000C943F0030
S11300500C943F0011241FBECFE5D4E0DEBFCDBF1A
S113006010E0A0E6B0E0ECE4F2E002C005900D92EE
S1130070A037B107D9F70E9417010C9424010C94FE
S1130080000080FF02C0AC9A01C0AC9881FF02C09E
S1130090AD9A01C0AD9882FF02C0AE9A01C0AE987D
S11300A083FF02C0AF9A0895AF980895A8980E945C
S11300B04100AA9AAA988FE39FE10197F1F700C043
S11300C00000089584B3806F84BB84B3876084BBCD
S11300D08FE39CE90197F1F700C0000083E00E94E0
S11300E056009AE69A95F1F700C083E00E94560004
S11300F08AE68A95F1F700C083E00E9456009AE6EA
S11301009A95F1F700C082E00E9456008AE68A952B
S1130110F1F700C082E00E94560088E00E94560079
S113012080E00E94560088E00E94560080E00E9411
S1130130560081E00E94560080E00E94560086E04E
S11301400E94560080E00E9456008CE00E945600F7
S11301500895CF93C82FA89A82958F700E9441006A
S1130160AA9AAA988C2F8F700E944100AA9AAA98E2
S11301708FE39FE10197F1F700C00000CF9108954C
S1130180CF93DF93EC018881882331F021960E947C
S1130190A90089918111FBCFDF91CF91089580E06F
S11301A00E94560081E00E9456000895CF93883241
S11301B008F087E2A898643008F063E0613091F0B9
S11301C028F06230D9F0633029F12FC0C0E8C80F9D
S11301D08C2F82958F700E9456008C2F8F700E94F6
S11301E0560023C0C0ECC80F8C2F82958F700E94DC
S11301F056008C2F8F700E94560017C0C4E9C80F98
S11302008C2F82958F700E9456008C2F8F700E94C5
S113021056000BC0C4EDC80F8C2F82958F700E94BE
S113022056008C2F8F700E945600CF9108950E9423
S113023062000E94CF0060E080E00E94D60080E669
S10F024090E00E94C000FFCFF894FFCFB4
S113024C48656C6C6F20576F726C6421212100001F
S9030000FC
