S012000050726F6A6563744C43442E7372656368
S11300000C942A000C943F000C943F000C943F0085
S11300100C943F000C943F000C943F000C943F0060
S11300200C943F000C943F000C943F000C943F0050
S11300300C943F000C943F000C943F000C943F0040
S11300400C943F000C943F000C943F000C943F0030
S11300500C943F0011241FBECFE5D4E0DEBFCDBF1A
S113006010E0A0E6B0E0E4EFF2E002C005900D92EB
S1130070A63EB107D9F70E9444010C9478010C9470
S1130080000080FF02C0AC9A01C0AC9881FF02C09E
S1130090AD9A01C0AD9882FF02C0AE9A01C0AE987D
S11300A083FF02C0AF9A0895AF980895A8980E945C
S11300B04100AA9AAA988FE39FE10197F1F700C043
S11300C00000089584B3806F84BB84B3876084BBCD
S11300D08FE39CE90197F1F700C0000083E00E94E0
S11300E056009AE69A95F1F700C083E00E94560004
S11300F08AE68A95F1F700C083E00E9456009AE6EA
S11301009A95F1F700C082E00E9456008AE68A952B
S1130110F1F700C082E00E94560088E00E94560079
S113012080E00E94560088E00E94560080E00E9411
S1130130560081E00E94560080E00E94560086E04E
S11301400E94560080E00E9456008CE00E945600F7
S11301500895CF93C82FA89A82958F700E9441006A
S1130160AA9AAA988C2F8F700E944100AA9AAA98E2
S11301708FE39FE10197F1F700C00000CF9108954C
S1130180CF93DF93EC018881882331F021960E947C
S1130190A90089918111FBCFDF91CF91089580E06F
S11301A00E94560081E00E9456000895CF93883241
S11301B008F087E2A898643008F063E0613091F0B9
S11301C028F06230D9F0633029F12FC0C0E8C80F9D
S11301D08C2F82958F700E9456008C2F8F700E94F6
S11301E0560023C0C0ECC80F8C2F82958F700E94DC
S11301F056008C2F8F700E94560017C0C4E9C80F98
S11302008C2F82958F700E9456008C2F8F700E94C5
S113021056000BC0C4EDC80F8C2F82958F700E94BE
S113022056008C2F8F700E945600CF910895CF9363
S1130230DF93EC01862F642F0E94D600CE010E942A
S1130240C000DF91CF9108950F931F93CF93DF9355
S113025084E00E94560080E00E945600C6E6D0E08A
S113026006EE10E0888122960E94A900C017D107EB
S1130270C9F780E00E94560082E00E945600DF9198
S1130280CF911F910F9108950E9462000E94CF00A8
S11302900E9424010E94CF0061E081E00E94D60008
S11302A080E00E94A90081E00E94A90082E00E94EF
S11302B0A90083E00E94A90084E00E94A90085E0CF
S11302C00E94A90086E00E94A90087E00E94A9007C
S11302D042E062E080E690E00E9417012FEF89E699
S11302E098E1215080409040E1F700C00000D2CF57
S10702F0F894FFCFAC
S11302F448656C6C6F0007000F00100010001000BC
S113030410000F0000000E001B001100110011006A
S113031411001F0000000E001B0011001100110049
S11303241F001F0000000E001B00110011001F001D
S11303341F001F0000000E001B0011001F001F00FF
S11303441F001F0000000E001F001F001F001F00DD
S11303541F001F0000000000040002001F00020030
S1130364040000000000000000000E001100110051
S10903740A001B0000005A
S9030000FC
