:020000040800F2
:10000000A0040020010100089F0F0008CD0E000889
:100010009D0F000849010008CD14000800000000F1
:10002000000000000000000000000000691100084E
:100030004B01000800000000B11000086B1100081F
:100040001B0100081B0100081B0100081B01000820
:100050001B0100081B0100081B0100081B01000810
:100060001B0100081B0100081B0100081B01000800
:100070001B0100081B0100081B0100081B010008F0
:100080001B0100081B0100081B0100081B010008E0
:100090001B0100081B0100081B0100081B010008D0
:1000A0001B0100081B0100081B0100081B010008C0
:1000B0001B0100081B0100081B0100081B010008B0
:1000C0001B0100081B0100081B0100081B010008A0
:1000D0001B010008C11400081B0100081B010008D7
:1000E0001B0100081B0100081B010008DFF80CD0F1
:1000F00000F018F800480047ED140008A0040020A4
:100100000648804706480047FEE7FEE7FEE7FEE7B1
:10011000FEE7FEE7FEE7FEE7FEE7FEE7E111000887
:10012000ED000008064C074D06E0E06840F00103D2
:1001300094E8070098471034AC42F6D3FFF7DAFF93
:100140004815000868150008FEE7704701B5074824
:1001500007490068B0FBF1F0009948430090411E48
:10016000009101D30846FAE708BD00000400002012
:100170004054890010B590F821100024022903D0C2
:100180000421816301243DE001680A6822F00E0227
:100190000A6001680A6822F001020A601A4A0168CE
:1001A000914201D1012121E0174A1432914201D13B
:1001B00010211BE0144A2832914201D1891515E023
:1001C000114A3C32914201D189140FE00E4A50325B
:1001D000914202D14FF4803108E00B4A64329142DF
:1001E00002D14FF4801101E04FF08071064A083AC5
:1001F0005160012180F82110002180F82010416B0E
:1002000001B18847204610BD080002402DE9F84F93
:10021000DFF890A100220AF1040B144601274FF0E9
:100220000F090BF1040E00BF0B6807FA04F52B4011
:10023000AB4274D1DFF870C14E68A6EB0C0866457E
:100240002BD00DDC032E34D005DC36B3012E19D0B3
:10025000022E2FD11BE0112E16D0122E2AD119E01A
:10026000B8F5881F19D006DCB8F5803F15D0B8F571
:10027000801F1FD111E0B8F5001F0ED0B8F5041F84
:1002800018D10AE0CA6815E0CA68121D12E0CA68EF
:1002900008320FE0CA680C320CE08A682AB1012AE1
:1002A0004FF0080203D0456104E0042202E005613A
:1002B00000E00022FF2B01D8064601E000F1040611
:1002C0004FEA840501D9A5F12005D6F800C009FA46
:1002D00005F82CEA080C02FA05F54CEA050CC6F8FC
:1002E00000C04D68ED0057D5304DAE6946F00106AF
:1002F000AE61AD6924F0030605F0010500952C4DB3
:1003000006EB050CDCF80850A6074FEA167809FA48
:1003100008F6B543274EB04202D1002610E03BE07C
:10032000254EB04201D101260AE0244EB04201D14F
:10033000022605E0224EB04201D1032600E0042649
:1003400006FA08F62E43CCF808604D68DAF800602B
:10035000ED03554601D51E4300E09E432E604D68D7
:10036000DBF80060AD035D4601D51E4300E09E430F
:100370002E604D68DEF80060ED02754601D51E4323
:1003800000E09E432E604D68AD020E4D2E6801D5F3
:100390001E4300E09E432E60641C102CFFF444AF0B
:1003A000BDE8F88F00040140000011100010024069
:1003B0000000014000080140000C01400010014015
:1003C000001401400C0401400AB1016170470904A6
:1003D000FBE70000014800687047000000000020B3
:1003E00002480168491C01607047000000000020BD
:1003F000074810B5016841F010010160032000F0CA
:1004000093F8002000F006F800F018F8002010BD66
:100410000020024010B5044607484FF47A71006886
:10042000B0FBF1F000F049FC00222146501E00F024
:100430005BF8002010BD000004000020224808B531
:10044000816941F001018161816901F0010100913F
:10045000C16941F08051C161C06900F080500090D5
:10046000032000F061F8002211466FF00B0000F04D
:100470003BF8002211466FF00A0000F035F8002228
:1004800011466FF0090000F02FF800221146501FAE
:1004900000F02AF800221146101F00F025F8002273
:1004A0001146901E00F020F800221146501E00F068
:1004B0001BF80648416821F0E0614160416841F065
:1004C0000071416008BD00000010024000000140C2
:1004D00000F01F02012191404009800000F1E0205E
:1004E000C0F8001170470000F0B40E4B1B680C46BA
:1004F000C3F30223C3F10705042D00D90425191DF8
:10050000072901D2002300E0DB1E012606FA05F1CF
:10051000491E214099409E40761E16403143F0BC52
:1005200000F0B6BD0CED00E0064900F007020868D7
:100530004FF6FF03184040EA0220034A10430860C8
:10054000704700000CED00E00000FA052DE9F047CF
:10055000DFF83C8105460E46D8F8000000F00700A1
:10056000B0420CD2D8F8001021F007013143C8F88E
:100570000010D8F8000000F00700B04263D12878DE
:10058000444C800705D56068A96820F0F000084356
:1005900060602878C00745D06868012816D02168B7
:1005A000022816D0890700294DDA616821F003017D
:1005B00001436160FFF70EFF6968074641F288302A
:1005C00001290FD00229814619D027E0216889032B
:1005D000E9E78901E7E700BFFFF7FCFEC11B4945DA
:1005E00001D918E081466068C0F381000128F3D189
:1005F00018E000BFFFF7EEFEC11B49450BD860684D
:10060000C0F381000228F5D10CE000BFFFF7E2FE45
:10061000C11B494502D90320BDE8F087606810F08E
:100620000C0FF3D1D8F80010404601F00701B14299
:100630000BD9016821F0070131430160006800F027
:100640000700B04201D00120E6E72878400705D531
:100650006068E96820F4E06008436060287800077B
:1006600006D56068296920F4605040EAC1006060E6
:1006700000F03CF86168084AC1F30311515CC840BE
:10068000064908600020FFF7C5FE0020C4E700000F
:100690000020024000100240301500080400002035
:1006A0000148006870470000040000200448054924
:1006B00000684968044AC1F30221515CC840704790
:1006C00004000020001002404015000804480549BD
:1006D00000684968044AC1F3C221515CC8407047B0
:1006E00004000020001002404015000810B512A3BD
:1006F00085B00FCB8DE80F0013A0144B0068049059
:100700005A68134802F00C0104290FD008290DD1B2
:10071000C2F38344D2031DF8041009D55A6804AB10
:10072000C2F340429A5CB0FBF2F0484305B010BD02
:1007300008484843FAE700000203040506070809D1
:100740000A0B0C0D0E0F10100102000000100240E9
:1007500000127A0000093D002DE9F84F04460078A8
:10076000B94DC00748D06868C0F38100012807D0A0
:100770006868C0F38100022809D16868C00306D503
:100780002868800338D5606800286FD034E060683E
:10079000B0F5803F0BD010B1B0F5A02F11D0286874
:1007A00020F480302860286820F4802002E0286847
:1007B00040F480302860606888B1FFF70BFE064681
:1007C00009E0286840F480202860F0E7FFF702FE87
:1007D000801B642875D828688003F7D50CE0FFF7E4
:1007E000F9FD064605E000BFFFF7F4FD801B642815
:1007F000F0D828688003F7D42078944E80074FF013
:1008000001094FF000083BD5686810F00C0F07D0C5
:100810006868C0F38100022809D16868C00306D463
:100820002868800714D5206901281FD110E02069AD
:10083000B0B1C6F80090FFF7CDFD074605E000BF58
:10084000FFF7C8FDC01B0228C4D828688007F7D569
:100850002868616920F0F80040EAC10028600FE0D4
:10086000C6F80080FFF7B6FD074606E0E9E000BFE6
:10087000FFF7B0FDC01B022823D828688007F7D4F3
:10088000207800072CD57248A169D9B1C0F8009032
:10089000FFF7A0FD074604E0FFF79CFDC01B022800
:1008A0000FD8686A8007F7D56A484FF4FA51006894
:1008B000B0FBF1F0009000BF0098411E0091FAD209
:1008C0000EE080E0C0F80080FFF784FD074604E0FA
:1008D000FFF780FDC01B022875D8686A8007F7D42F
:1008E0002078400760D5E8690027C00008D4E8698F
:1008F00040F08050E861E869012700F080500090E6
:1009000055480168C90513D40168834641F48071D4
:100910000160FFF75FFD824606E000BFFFF75AFD6A
:10092000A0EB0A0064284ED8DBF80000C005F5D51E
:10093000E06801280AD008B1052813D0286A20F001
:1009400001002862286A20F0040002E0286A40F0D2
:1009500001002862E06841F2883B98B1FFF73AFD58
:1009600082460BE0286A40F004002862EEE700BFF0
:10097000FFF730FDA0EB0A0159455AD8286A8007D5
:10098000F6D50CE0FFF726FD824605E0FFF722FDD5
:10099000A0EB0A0159454CD8286A8007F6D41FB14C
:1009A000E86920F08050E861E06988B36968C1F3C4
:1009B0008101022945D00228C6F8608004D0FFF7E3
:1009C00009FD044638E034E0FFF704FD074604E083
:1009D000FFF700FDC01B02282BD828688001F7D440
:1009E000206AB0F5803F05D16868A16820F4003026
:1009F00008436860D4E908010843696821F4741168
:100A000008436860C6F86090FFF7E4FC044606E01F
:100A100015E000BFFFF7DEFC001B022809D828689C
:100A20008001F7D50BE000BFFFF7D4FC001B0228C4
:100A300002D90320BDE8F88F28688001F4D4002093
:100A4000F8E70120F6E700000010024000004242F3
:100A500080044242040000200070004070B5040091
:100A600005D00025A56294F8510010B104E00120E2
:100A700070BD204600F034F8022084F85100206850
:100A8000016821F040010160D4E901010843D4E983
:100A900003121143084361690843218B01F400717B
:100AA0000843E1690843216A0843A16A08432168B1
:100AB0000860A069042101EA1040616A08432168C6
:100AC00048602168E06A08612068C16921F400611A
:100AD000C1616565012084F85100002070BD0000EF
:100AE00010B50068114986B088421CD11048816950
:100AF00041F48051816180690E4C00F48050049073
:100B0000A020009002200190032003906946204617
:100B1000FFF77CFB00214020CDE9000102916946EE
:100B20002046FFF773FB06B010BD00000030014007
:100B300000100240000801402DE9F84F044690F8EB
:100B400050000026994617460D4601280DD04FF05B
:100B5000010B84F850B0FFF73DFC804694F851003B
:100B6000B246012804D0022694E00220BDE8F88FA6
:100B7000002D7BD0002F79D0032084F85100C4F8D9
:100B800054A02563A786E786C4F838A0A4F83CA043
:100B9000A4F83EA0C4F844A0C4F840A0A068B0F5F2
:100BA000004F04D12068016841F480410160206851
:100BB0000168490603D4016841F040010160E06822
:100BC000B0F5006F606804D030B3E08E012823D008
:100BD0003EE010B1E08E01281AD135F8021B2068E2
:100BE00005E020688168890706D535F8021BC160D9
:100BF000E08E401EE0860BE0B9F1000F34D0B9F171
:100C0000FF3F05D0FFF7E6FBA0EB080149452BD2DB
:100C1000E08E0028E5D11EE0216815F8010B08736D
:100C200006E020688168890706D515F8011B017365
:100C3000E08E401EE0860BE0B9F1000F14D0B9F150
:100C4000FF3F05D0FFF7C6FBA0EB080149450BD2DB
:100C5000E08E0028E5D14B46012202212046CDF846
:100C6000008000F036FA10B1032613E011E042468E
:100C70004946204600F01DFA18B101262020606583
:100C800008E0A06818B92068C16880680090606DAD
:100C900000B1012684F851B084F850A0304665E7D1
:100CA0004FF0E0210428086903D020F00400086117
:100CB000704740F00400FAE7704710B5401EB0F1ED
:100CC000807F01D3012010BD4FF0E02460610F212F
:100CD000601700F0DDF90020A061072020610020EE
:100CE00010BD10B5FFF7E8FF10BD704770B5026882
:100CF00004461068D168536910F00F0F50D003F00C
:100D0000010501F4907635435DD0C20705D0CA05D0
:100D100003D5E26B42F00102E263420705D5DA0730
:100D200003D0E26B42F00202E263820705D5DA07E4
:100D300003D0E26B42F00402E263020705D5DA0752
:100D400003D0E26B42F00802E263E26B002A33D088
:100D5000800604D5880602D5204600F07BFA20687C
:100D60004069E16BC0F38010090700D428B3204626
:100D700000F062FA2068416949061AD5416921F0FC
:100D800040014161606BA0B11B494163606BFFF79B
:100D9000F1F9002810D0606B416BBDE87040084746
:100DA000830610D58B060ED52046BDE8704000F0B6
:100DB00051BA2046FFF799FF70BD2046FFF795FF17
:100DC0000020E06370BD030606D50B0604D520465F
:100DD000BDE8704000F042BB4006F3D54806F1D5AF
:100DE000D168204621F04001D160202184F83910DB
:100DF00000F06BF870BD00002912000870B5040007
:100E000004D094F83900002510B106E0012070BD2F
:100E100084F83850204600F023F8242084F8390064
:100E20002068C16821F40051C160204600F05EFADC
:100E30002068016921F4904101612068416921F035
:100E40002A0141612068C16841F40051C160E56335
:100E5000202084F8390084F83A00002070BD00009A
:100E600010B50068154986B0884225D114488169BB
:100E700041F4804181618069124C00F4804004900B
:100E80004FF4007000900220019003200390694607
:100E90002046FFF7BBF900212015CDE900010291A2
:100EA00069462046FFF7B2F9002211462520FFF7D8
:100EB0001BFB2520FFF70CFB06B010BD00380140DE
:100EC000001002400008014070477047FEE7000034
:100ED0002DE9F0411E4886B0816941F01001816121
:100EE000816901F010010491816941F02001816163
:100EF000816901F020010491816941F0040181615F
:100F00008069144F00F004004FF400540490002254
:100F100021463846FFF758FADFF83C8000221C21B2
:100F20004046FFF751FA009401AA01240025022649
:100F300082E8700069463846FFF768F91C208DE8A2
:100F4000710069464046FFF761F906B0BDE8F081DF
:100F50000010024000100140000801400E4810B58A
:100F60000C4901604FF48271416000218160C160D1
:100F70004FF400720161C0E905122022C0E9072187
:100F8000416281620A21C162FFF768FD002800D03A
:100F9000FEE710BD0030014008000020FEE770476A
:100FA00010B5002208211148FFF70EFA41F28834EB
:100FB0002046FFF7CBF80A21002000F043F8204636
:100FC000FFF7C4F80221012000F03CF80221084696
:100FD00000F038F80121032000F034F85F210420EC
:100FE00000F030F8BDE8104000F002B80008014001
:100FF00038B511A0114C0068009000221021204645
:10100000FFF7E2F94FF47A752B46012269460C4846
:10101000FFF792FD0120FFF799F873208DF800008B
:101020002B46012269460648FFF786FD0122102162
:101030002046FFF7C9F938BD500000000008014004
:101040000800002073B5104C9DF80000002240F00D
:1010500020008DF8000010212046FFF7B5F94FF46D
:101060007A752B46012269460848FFF765FD2B4635
:10107000012201A90548FFF75FFD0122102120464A
:10108000FFF7A2F97CBD0000000801400800002025
:101090000907090E002806DA00F00F0000F1E02031
:1010A00080F8141D704700F1E02080F800147047AC
:1010B000704738B50B46009204460022802100F0AC
:1010C00008F8002804D0606D40F02000606503201F
:1010D00038BD2DE9F0411D4617460E460446DDF8A1
:1010E000188035E0681C33D02DB1FFF773F9A0EB01
:1010F0000800A8422CD32068416821F0E00141603B
:101100006068B0F5827F0BD1A068B0F5004F02D0C7
:10111000B0F5806F04D12068016821F040010160C2
:10112000A06AB0F5005F0AD1206801684DF6FF7231
:10113000114001602068016841F400510160012004
:1011400084F85100002084F850000320BDE8F081AD
:101150002068806836EA000004D00020B842C1D17F
:101160000020F3E70120F9E7704710B5FFF738F9E1
:10117000BDE81040FFF7B5BD30B58FB001210804C0
:10118000CDE900100024029402250491CDE9075016
:101190004FF4C01009906846FFF7DEFA00B1FEE791
:1011A0000F20CDE90A054FF48060CDE90C40022103
:1011B0000AA80E94FFF7CAF900B1FEE7FFF770FA2C
:1011C0004FF47A71B0FBF1F0FFF777FD0420FFF7E1
:1011D00067FD00221146501EFFF786F90FB030BDA3
:1011E0000D48016841F00101016041680B4A11405E
:1011F000416001680A4A11400160016821F48021C0
:101200000160416821F4FE0141604FF41F018160DB
:101210000449C00308607047001002400000FFF856
:10122000FFFFF6FE08ED00E010B5406A0021C18521
:10123000C184FFF75AFD10BD0168CA6822F490729C
:10124000CA6001684A6922F001024A61202180F8DF
:101250003A10704710B590F83A10222901D00220B8
:1012600010BD8168B1F5805F11D001690029016866
:101270001FD0496801F07F03816A4A1C82620B70AB
:10128000C18D491E0904090CC18518D02BE00269E3
:10129000816A002A0268526805D0D2B20A80816A47
:1012A000491C8162ECE7C2F308020A80816A891C4A
:1012B000F7E74A68816A4B1C83620A70E0E70168BD
:1012C000CA6822F02002CA600168CA6822F48072EB
:1012D000CA6001684A6922F001024A61202180F84F
:1012E0003A10FFF7F1FD002010BD00002DE9F0419C
:1012F000044600680169E26821F44051114301612C
:101300002169A0680843616908432168CA6841F2FD
:101310000C639A430243CA6020684169A26921F4C0
:101320004071114341614C4920686425322688424E
:101330003CD1FFF7CBF900EBC00101EB0010616875
:101340008900B0FBF1F7FFF7C1F900EBC00101EB39
:1013500000106168B0468900B0FBF1F0B0FBF5F019
:101360006FF01801484307EB800106EB0110B0FB5A
:10137000F5F000F0F006FFF7A9F900EBC00101EB72
:10138000001061688900B0FBF1F0B0FBF5F006EBEE
:101390000016FFF79BF900EBC00101EB001061683C
:1013A0008900B0FBF1F7FFF791F93BE0FFF77EF919
:1013B00000EBC00101EB001061688900B0FBF1F7A0
:1013C000FFF774F900EBC00101EB00106168B04653
:1013D0008900B0FBF1F0B0FBF5F06FF01801484365
:1013E00007EB800106EB0110B0FBF5F000F0F00612
:1013F000FFF75CF900EBC00101EB001061688900A8
:10140000B0FBF1F0B0FBF5F006EB0016FFF74EF97C
:1014100000EBC00101EB001061688900B0FBF1F73F
:10142000FFF744F900EBC00101EB0010616889008F
:10143000B0FBF1F0B0FBF5F06FF01801484307EB9B
:10144000800108EB0110B0FBF5F0216800F00F00FF
:1014500030448860BDE8F0810038014090F83910D0
:10146000212901D0022070478168B1F5805F016AAF
:101470000BD04A1C0262026809785160C18C491E77
:101480000904090CC1840ED017E009880268C1F371
:101490000801516001690029016A02D0491C0162FA
:1014A000ECE7891CFBE70168CA6822F08002CA6089
:1014B0000068C16841F04001C16000207047000031
:1014C0000148FFF713BC000060000020FEE702E0C7
:1014D00008C8121F08C1002AFAD1704770470020BF
:1014E00001E001C1121F002AFBD17047FEF780FF07
:1014F000FFF742FEFFF7ECFC0C480B490C220160A1
:101500004FF4E131416000218160C160C0E9041203
:101510008161C161FFF772FC00B1FEE7FFF71EFDBC
:10152000FFF73EFDFEE700000038014060000020AC
:101530000000000000000000010203040607080983
:1015400000000000010203046815000800000020EC
:1015500008000000CE1400087015000808000020E4
:1015600098040000DE1400080000000000A24A04F5
:04000005080000ED02
:00000001FF
