:020000040800F2
:10000000D00400200101000887120008A311000895
:1000100085120008F7010008ED1800080000000034
:100020000000000000000000000000005916000859
:10003000F901000800000000A11500085B16000887
:100040001B0100081B0100081B0100081B01000820
:100050001B0100081B0100081B0100081B01000810
:100060001B0100081B0100081B0100081B01000800
:100070001B0100081B0100081B0100081B010008F0
:100080001B0100081B0100081B0100081B010008E0
:100090001B0100081B0100081B0100081B010008D0
:1000A0001B0100081B0100081B0100081B010008C0
:1000B0001B0100081B0100081B0100081B010008B0
:1000C0001B0100081B0100081B0100081B010008A0
:1000D0001B0100081B0100081B0100081B01000890
:1000E0001B0100081B0100081B010008DFF80CD0F1
:1000F00000F060F800480047A51D0008D00400206B
:100100000648804706480047FEE7FEE7FEE7FEE7B1
:10011000FEE7FEE7FEE7FEE7FEE7FEE7D116000892
:10012000ED000008202A04DB203A21FA02F0002129
:10013000704721FA02F3D040C2F1200291400843F7
:1001400019467047421C10F8011B0029FBD1801A88
:1001500070472DE9F05F0546002092469B46884691
:100160000646814640241BE0284641464746224633
:10017000FFF7D8FF53465A46C01A914110D3114693
:100180001846224600F028F82D1A67EB01084F4662
:1001900022460120002100F01FF817EB00094E4114
:1001A000201EA4F10104DFDC484631462A464346BE
:1001B000BDE8F09F064C074D06E0E06840F0010303
:1001C00094E8070098471034AC42F6D3FFF792FF4B
:1001D000EC1F00080C200008202A04DB203A00FA5B
:1001E00002F1002070479140C2F1200320FA03F38E
:1001F000194390407047FEE77047000001B507487B
:1002000007490068B0FBF1F0009948430090411E97
:10021000009101D30846FAE708BD0000080000205D
:100220004054890031B500F0EFF8009C0546601C91
:1002300000D0641C00F0E8F8401BA042FAD338BD9F
:100240002DE9F84FDFF890A100220AF1040B1446C3
:1002500001274FF00F090BF1040E00BF0B6807FADE
:1002600004F52B40AB4274D1DFF870C14E68A6EBA9
:100270000C0866452BD00DDC032E34D005DC36B3DC
:10028000012E19D0022E2FD11BE0112E16D0122EC6
:100290002AD119E0B8F5881F19D006DCB8F5803FDF
:1002A00015D0B8F5801F1FD111E0B8F5001F0ED092
:1002B000B8F5041F18D10AE0CA6815E0CA68121D13
:1002C00012E0CA6808320FE0CA680C320CE08A6893
:1002D0002AB1012A4FF0080203D0456104E004224C
:1002E00002E0056100E00022FF2B01D8064601E094
:1002F00000F104064FEA840501D9A5F12005D6F8DE
:1003000000C009FA05F82CEA080C02FA05F54CEAD7
:10031000050CC6F800C04D68ED0057D5304DAE69EC
:1003200046F00106AE61AD6924F0030605F0010553
:1003300000952C4D06EB050CDCF80850A6074FEA9B
:10034000167809FA08F6B543274EB04202D10026C6
:1003500010E03BE0254EB04201D101260AE0244ED8
:10036000B04201D1022605E0224EB04201D103265F
:1003700000E0042606FA08F62E43CCF808604D6823
:10038000DAF80060ED03554601D51E4300E09E43B8
:100390002E604D68DBF80060AD035D4601D51E435D
:1003A00000E09E432E604D68DEF80060ED02754669
:1003B00001D51E4300E09E432E604D68AD020E4DF8
:1003C0002E6801D51E4300E09E432E60641C102C55
:1003D000FFF444AFBDE8F88F0004014000001110A5
:1003E000001002400000014000080140000C0140E4
:1003F00000100140001401400C0401400AB10161E9
:1004000070470904FBE700000148006870470000DE
:100410000400002002480168491C01607047000088
:1004200004000020074810B5016841F01001016088
:10043000032000F087F8002000F006F800F018F81C
:10044000002010BD0020024010B5044607484FF4BC
:100450007A710068B0FBF1F000F0D1FD0022214676
:10046000501E00F04FF8002010BD000008000020D2
:10047000224808B5816941F001018161816901F07B
:1004800001010091C16941F08051C161C06900F072
:1004900080500090032000F055F8002211466FF0C4
:1004A0000B0000F02FF8002211466FF00A0000F058
:1004B00029F8002211466FF0090000F023F800220D
:1004C0001146501F00F01EF800221146101F00F0C8
:1004D00019F800221146901E00F014F8002211466F
:1004E000501E00F00FF80648416821F0E0614160BD
:1004F000416841F00071416008BD000000100240F9
:1005000000000140F0B40E4B1B680C46C3F30223FD
:10051000C3F10705042D00D90425191D072901D2AF
:10052000002300E0DB1E012606FA05F1491E2140EA
:1005300099409E40761E16403143F0BC01F020B831
:100540000CED00E0064900F0070208684FF6FF03D3
:10055000184040EA0220034A104308607047000038
:100560000CED00E00000FA052DE9F047DFF83C81D2
:1005700005460E46D8F8000000F00700B0420CD245
:10058000D8F8001021F007013143C8F80010D8F85E
:10059000000000F00700B04263D12878444C800787
:1005A00005D56068A96820F0F000084360602878ED
:1005B000C00745D06868012816D02168022816D0E7
:1005C000890700294DDA616821F003010143616068
:1005D000FFF71AFF6968074641F2883001290FD0FA
:1005E0000229814619D027E021688903E9E78901BA
:1005F000E7E700BFFFF708FFC11B494501D918E035
:1006000081466068C0F381000128F3D118E000BF83
:10061000FFF7FAFEC11B49450BD86068C0F38100A3
:100620000228F5D10CE000BFFFF7EEFEC11B4945E3
:1006300002D90320BDE8F087606810F00C0FF3D1F9
:10064000D8F80010404601F00701B1420BD901680B
:1006500021F0070131430160006800F00700B0425B
:1006600001D00120E6E72878400705D56068E968F1
:1006700020F4E060084360602878000706D56068D1
:10068000296920F4605040EAC100606000F03CF845
:100690006168084AC1F30311515CC840064908600B
:1006A0000020FFF7D1FE0020C4E700000020024038
:1006B00000100240D41F0008080000200148006814
:1006C0007047000008000020044805490068496898
:1006D000044AC1F30221515CC84070470800002061
:1006E00000100240E41F00080448054900684968FA
:1006F000044AC1F3C221515CC84070470800002081
:1007000000100240E41F000810B512A385B00FCB03
:100710008DE80F0013A0144B006804905A6813482A
:1007200002F00C0104290FD008290DD1C2F3834433
:10073000D2031DF8041009D55A6804ABC2F3404235
:100740009A5CB0FBF2F0484305B010BD084848433E
:10075000FAE7000002030405060708090A0B0C0D5E
:100760000E0F1010010200000010024000127A006B
:1007700000093D002DE9F84F04460078B94DC00747
:1007800048D06868C0F38100012807D06868C0F3CA
:100790008100022809D16868C00306D52868800353
:1007A00038D5606800286FD034E06068B0F5803FCD
:1007B0000BD010B1B0F5A02F11D0286820F48030F4
:1007C0002860286820F4802002E0286840F4803007
:1007D0002860606888B1FFF717FE064609E02868C0
:1007E00040F480202860F0E7FFF70EFE801B6428AD
:1007F00075D828688003F7D50CE0FFF705FE06469C
:1008000005E000BFFFF700FE801B6428F0D82868D1
:100810008003F7D42078944E80074FF001094FF001
:1008200000083BD5686810F00C0F07D06868C0F36B
:100830008100022809D16868C00306D428688007AF
:1008400014D5206901281FD110E02069B0B1C6F885
:100850000090FFF7D9FD074605E000BFFFF7D4FD84
:10086000C01B0228C4D828688007F7D528686169AA
:1008700020F0F80040EAC10028600FE0C6F80080D0
:10088000FFF7C2FD074606E0E9E000BFFFF7BCFD49
:10089000C01B022823D828688007F7D420780007D7
:1008A0002CD57248A169D9B1C0F80090FFF7ACFD12
:1008B000074604E0FFF7A8FDC01B02280FD8686AAE
:1008C0008007F7D56A484FF4FA510068B0FBF1F0A1
:1008D000009000BF0098411E0091FAD20EE080E027
:1008E000C0F80080FFF790FD074604E0FFF78CFD9D
:1008F000C01B022875D8686A8007F7D420784007A3
:1009000060D5E8690027C00008D4E86940F080504D
:10091000E861E869012700F08050009055480168BF
:10092000C90513D40168834641F480710160FFF763
:100930006BFD824606E000BFFFF766FDA0EB0A00F4
:1009400064284ED8DBF80000C005F5D5E068012822
:100950000AD008B1052813D0286A20F001002862C7
:10096000286A20F0040002E0286A40F001002862B2
:10097000E06841F2883B98B1FFF746FD82460BE004
:10098000286A40F004002862EEE700BFFFF73CFD54
:10099000A0EB0A0159455AD8286A8007F6D50CE021
:1009A000FFF732FD824605E0FFF72EFDA0EB0A01BE
:1009B00059454CD8286A8007F6D41FB1E86920F061
:1009C0008050E861E06988B36968C1F38101022958
:1009D00045D00228C6F8608004D0FFF715FD044614
:1009E00038E034E0FFF710FD074604E0FFF70CFDA8
:1009F000C01B02282BD828688001F7D4206AB0F5E4
:100A0000803F05D16868A16820F400300843686021
:100A1000D4E908010843696821F474110843686047
:100A2000C6F86090FFF7F0FC044606E015E000BF52
:100A3000FFF7EAFC001B022809D828688001F7D5D7
:100A40000BE000BFFFF7E0FC001B022802D90320E7
:100A5000BDE8F88F28688001F4D40020F8E7012071
:100A6000F6E70000001002400000424280044242CB
:100A7000080000200070004070B5040005D000257B
:100A8000A56294F8510010B104E0012070BD204629
:100A900000F034F8022084F851002068016821F049
:100AA00040010160D4E901010843D4E90312114374
:100AB000084361690843218B01F400710843E1692F
:100AC0000843216A0843A16A084321680860A069B5
:100AD000042101EA1040616A0843216848602168E6
:100AE000E06A08612068C16921F40061C16165653F
:100AF000012084F85100002070BD000010B500688E
:100B0000114986B088421CD11048816941F4805156
:100B1000816180690E4C00F480500490A020009008
:100B2000022001900320039069462046FFF788FBCE
:100B300000214020CDE90001029169462046FFF7DF
:100B40007FFB06B010BD00000030014000100240E5
:100B5000000801402DE9F84F0446406800269846F9
:100B600017460D464FF00409B0F5827F01D1A06809
:100B700090B194F85000012819D04FF0010B84F87F
:100B800050B0FFF741FC009094F851004FF0000A7C
:100B900001280ED002267FE084F8519013460A46C1
:100BA0002046CDF8008000F031F9BDE8F88F022032
:100BB000FBE7002D6FD0002F6DD084F85190C4F862
:100BC00054A0A563A787E787C4F830A0A4F834A091
:100BD000A4F836A0C4F840A0C4F844A0A0684FF41C
:100BE0000047B84204D12068016821F480410160C7
:100BF00020680168490603D4016841F040010160A2
:100C0000E068B8B133E020688168C90706D0007B8E
:100C100005F8010BE08F401EE0870BE0B8F1000FF4
:100C200023D0B8F1FF3F05D0FFF7EEFB0099411A42
:100C300041451AD2E08F0028E5D11BE02068816889
:100C4000C90706D0C06825F8020BE08F401EE08778
:100C50000DE0B8F1000F08D0B8F1FF3F07D0FFF763
:100C6000D3FB0099411A414501D3032614E0E08FDC
:100C70000028E3D16068B0F5827F0AD1A068B8424D
:100C800002D0B0F5806F04D12068016821F04001E6
:100C90000160606D00B1012684F851B084F850A065
:100CA000304682E72DE9F84F044690F850000026C0
:100CB000994617460D4601280DD04FF0010B84F8D8
:100CC00050B0FFF7A1FB804694F85100B2460128CE
:100CD00004D0022694E00220BDE8F88F002D7BD0DE
:100CE000002F79D0032084F85100C4F854A0256364
:100CF000A786E786C4F838A0A4F83CA0A4F83EA0D4
:100D0000C4F844A0C4F840A0A068B0F5004F04D1D6
:100D10002068016841F4804101602068016849064B
:100D200003D4016841F040010160E068B0F5006F54
:100D3000606804D030B3E08E012823D03EE010B1CB
:100D4000E08E01281AD135F8021B206805E02068E2
:100D50008168890706D535F8021BC160E08E401E08
:100D6000E0860BE0B9F1000F34D0B9F1FF3F05D0B8
:100D7000FFF74AFBA0EB080149452BD2E08E002883
:100D8000E5D11EE0216815F8010B087306E0206824
:100D90008168890706D515F8011B0173E08E401E96
:100DA000E0860BE0B9F1000F14D0B9F1FF3F05D098
:100DB000FFF72AFBA0EB080149450BD2E08E002883
:100DC000E5D14B46012202212046CDF8008000F0FB
:100DD000F8FB10B1032613E011E0424649462046D5
:100DE00000F0DFFB18B101262020606508E0A06854
:100DF00018B92068C16880680090606D00B1012654
:100E000084F851B084F850A0304665E72DE9F84FDA
:100E1000044690F8500000260A9F9A4693460D46D5
:100E20004FF0010801280ED0012084F85000FFF790
:100E3000EBFA814694F85100616801280CD0B1F5B5
:100E4000827F07D102E00220BDE8F88FA16809B9CE
:100E5000042801D00226BDE055B1BBF1000F07D038
:100E6000BAF1000F04D094F85100012802D004E038
:100E70000126AFE0052084F8510000206065C4F829
:100E800038B0A4F83EA0A4F83CA02563A4F836A08E
:100E9000A4F834A02064606420680168490603D483
:100EA000016841F040010160E068B0F5006F6068E2
:100EB00004D0E8B3E08E01283BD06AE010B1E08EA8
:100EC00001282ED1216835F8020BC860E08E401E43
:100ED000E08626E0B8F1000F0DD0E08E58B1206812
:100EE0008168890707D535F8021BC160E08E401E76
:100EF000E0864FF00008E08F58B120688168C9078C
:100F000007D0C0682BF8020BE08F401EE0874FF03F
:100F10000108781C05D0FFF777FAA0EB0900B8426A
:100F200046D2E08E0028D5D1E08F0028D2D136E01D
:100F3000FFE7216815F8010B0873E08E401EE0867C
:100F400027E000BFB8F1000F0DD0E08E58B1206847
:100F50008168890707D515F8011B0173E08E401ED3
:100F6000E0864FF00008E08F58B120688168C9071B
:100F700007D0C0680BF8010BE08F401EE0874FF0F0
:100F80000108781C05D0FFF73FFAA0EB0900B84232
:100F90000ED2E08E0028D5D1E08F0028D2D13B467A
:100FA000012202212046CDF8009000F00AFB08B192
:100FB00003260FE04A463946204600F0F2FA18B1FF
:100FC00001262020606505E0A06818B92068C16886
:100FD00080680090012084F85100002084F85000BF
:100FE000304631E74FF0E0210428086903D020F0B3
:100FF00004000861704740F00400FAE7704710B53C
:10100000401EB0F1807F01D3012010BD4FF0E024DD
:1010100060610F21601700F0B3FA0020A061072083
:101020002061002010BD10B5FFF7E8FF10BD70B5BE
:10103000040004D094F83900002510B106E0012026
:1010400070BD84F83850204600F022F8242084F83F
:1010500039002068C16821F40051C160204600F0C9
:101060005BFB2068016921F49041016120684169BE
:1010700021F02A0141612068C16841F40051C1603A
:10108000E563202084F8390084F83A00002070BD20
:1010900010B50068114986B088421DD11048816999
:1010A00041F48041816180690E4C00F480400490DD
:1010B0004FF40070009002200190032003906946D5
:1010C0002046FFF7BDF800212015CDE9000102916F
:1010D00069462046FFF7B4F806B010BD003801405D
:1010E00000100240000801402DE9F843044690F842
:1010F00039001F4616460D46202850D1A5B19EB195
:1011000094F8380001284AD0012084F838004FF0C4
:101110000008C4F83C80212084F83900FFF774F9F6
:10112000A6848146E68426E00120BDE8F883E08CB1
:10113000401EE084A0684B46B0F5805F4FF000028F
:101140004FF080012046009703D000F09DFBE8B9E6
:101150000DE000F099FBC8B928882168C0F30800A9
:101160004860206908B16D1C05E0AD1C03E02168F2
:1011700015F8010B4860E08C0028D8D14B460022BE
:1011800040212046009700F07FFB08B10320CCE708
:10119000202084F8390084F838800020C5E7022038
:1011A000C3E7FEE72DE9F041234886B0816941F0AD
:1011B00010018161816901F010010491816941F0A0
:1011C00020018161816901F020010491816941F070
:1011D000040181618069194F00F004004FF400544C
:1011E0000490002221463846FFF708F9DFF85080C6
:1011F000002218214046FFF701F90125CDE90045FD
:1012000000240226CDE9024669463846FFF718F861
:101210000420CDE90004694640460294FFF710F827
:101220001820CDE90005CDE9024669464046FFF7A2
:1012300007F806B0BDE8F081001002400010014040
:10124000000801400E4810B50C4901604FF482714E
:10125000416000218160C1604FF400720161C0E90A
:1012600005122022C0E90721416281620A21C16280
:10127000FFF702FC002800D0FEE710BD003001405F
:1012800034000020FEE7704710B5002000F056F84B
:1012900040F00301002000F0CDF8012208210648AB
:1012A000FFF7ACF89620FEF7A9FF00F007F8BDE8BD
:1012B000104000F023B800000008014038B50CA031
:1012C0000C4C00680090002210212046FFF796F891
:1012D0004FF47A73012269460748FFF7E3FC0120C7
:1012E000FEF78CFF012210212046FFF787F838BD5A
:1012F000E2000000000801403400002038B50CA0D6
:101300000C4C00680090002210212046FFF776F870
:101310004FF47A73012269460748FFF7C3FC0120A6
:10132000FEF76CFF012210212046FFF767F838BD59
:10133000E1000000000801403400002031B584B015
:101340000020144D8DF80400024610212846FFF7B6
:1013500055F84FF47A74012301AA04A90E480094A9
:10136000FFF754FD9DF81000072809D0FF208DF8E5
:101370000800012301AA02A907480094FFF746FDCF
:10138000012210212846FFF739F89DF8040005B026
:1013900030BD00000008014034000020F7B50E4CBD
:1013A00016460F46002210212046FFF727F84FF47B
:1013B0007A752B46012269460848FFF773FC2B46D5
:1013C000324639460548FFF7C5FB01221021204669
:1013D000FFF714F8FEBD00000008014034000020B3
:1013E00038B511A0114C0068009000221021204651
:1013F000FFF704F84FF47A752B46012269460C4832
:10140000FFF750FC0120FEF7F9FE73208DF8000075
:101410002B46012269460648FFF744FC01221021B1
:101420002046FEF7EBFF38BD5000000000080140E9
:101430003400002073B5104C9DF80000002240F0ED
:1014400020008DF8000010212046FEF7D7FF4FF452
:101450007A752B46012269460848FFF723FC2B4684
:10146000012201A90548FFF71DFC01221021204699
:10147000FEF7C4FF7CBD00000008014034000020DE
:10148000F7B5124C9DF80000164640F020000F46BC
:101490008DF80000002210212046FEF7AFFF4FF428
:1014A0007A752B46012269460948FFF7FBFB0120AC
:1014B000FEF7A4FE2B46324639460548FFF7F2FBFD
:1014C000012210212046FEF799FFFEBD00080140D1
:1014D0003400002010B5002208212648FEF78EFFB8
:1014E00041F288342046FEF789FE0A210020FFF7EA
:1014F000A1FF2046FEF782FE02210120FFF79AFF9E
:1015000002210846FFF796FF01210320FFF792FF13
:101510005F210420FFF78EFFFFF762FF00211D20EF
:10152000FFF788FF00211C20FFF784FF70210720B0
:10153000FFF780FF4C210520FFF77CFF06210846BE
:10154000FFF778FF03220C491020FFF799FF0322D1
:1015500009490B20FFF794FF02211220FFF76AFFD1
:10156000FFF792FE0122BDE8104051030348FEF749
:1015700045BF0000000801400000002000100140AD
:101580000907090E002806DA00F00F0000F1E0203C
:1015900080F8141D704700F1E02080F800147047B7
:1015A000704738B50B46009204460022802100F0B7
:1015B00008F8002804D0606D40F02000606503202A
:1015C00038BD2DE9F0411D4617460E460446DDF8AC
:1015D000188035E0681C33D02DB1FEF715FFA0EB65
:1015E0000800A8422CD32068416821F0E001416046
:1015F0006068B0F5827F0BD1A068B0F5004F02D0D3
:10160000B0F5806F04D12068016821F040010160CD
:10161000A06AB0F5005F0AD1206801684DF6FF723C
:10162000114001602068016841F40051016001200F
:1016300084F85100002084F850000320BDE8F081B8
:101640002068806836EA000004D00020B842C1D18A
:101650000020F3E70120F9E7704710B5FEF7DAFE46
:10166000BDE81040FFF7DFBC30B58FB001210804A2
:10167000CDE900100024029402250491CDE9075021
:101680004FF4C01009906846FFF774F800B1FEE708
:101690000F20CDE90A054FF48060CDE90C4002210E
:1016A0000AA80E94FEF760FF00B1FEE7FFF706F808
:1016B0004FF47A71B0FBF1F0FFF7A1FC0420FFF7C3
:1016C00091FC00221146501EFEF71CFF0FB030BDEA
:1016D0000D48016841F00101016041680B4A114069
:1016E000416001680A4A11400160016821F48021CB
:1016F0000160416821F4FE0141604FF41F018160E7
:101700000449C00308607047001002400000FFF861
:10171000FFFFF6FE08ED00E02DE9F0410446006809
:101720000169E26821F44051114301612169A06817
:101730000843616908432168CA6841F20C639A430F
:101740000243CA6020684169A26921F440711143D3
:1017500041614C4920686425322688423CD1FEF71D
:10176000C3FF00EBC00101EB001061688900B0FB12
:10177000F1F7FEF7B9FF00EBC00101EB0010616863
:10178000B0468900B0FBF1F0B0FBF5F06FF0180146
:10179000484307EB800106EB0110B0FBF5F000F0C9
:1017A000F006FEF7A1FF00EBC00101EB001061683D
:1017B0008900B0FBF1F0B0FBF5F006EB0016FEF788
:1017C00093FF00EBC00101EB001061688900B0FBE2
:1017D000F1F7FEF789FF3BE0FEF776FF00EBC00173
:1017E00001EB001061688900B0FBF1F7FEF76CFFB8
:1017F00000EBC00101EB00106168B0468900B0FB4E
:10180000F1F0B0FBF5F06FF01801484307EB8001F1
:1018100006EB0110B0FBF5F000F0F006FEF754FF08
:1018200000EBC00101EB001061688900B0FBF1F032
:10183000B0FBF5F006EB0016FEF746FF00EBC0012B
:1018400001EB001061688900B0FBF1F7FEF73CFF87
:1018500000EBC00101EB001061688900B0FBF1F002
:10186000B0FBF5F06FF01801484307EB800108EB7F
:101870000110B0FBF5F0216800F00F0030448860E3
:10188000BDE8F081003801402DE9F0419846174647
:101890000E460446069D1DE0681C1BD02DB1FEF7C8
:1018A000B3FDA0EB0800A84214D92068C16821F458
:1018B000D071C1602068416921F00101416120209F
:1018C00084F8390084F83A00002084F838000320B6
:1018D000BDE8F0812068006836EA000004D00020EE
:1018E000B842D9D00020F3E70120F9E7FEE7000075
:1018F0000FB4084B10B504A902AA039800F01CF815
:10190000044602A9002000F048FA204610BC5DF809
:1019100014FB00009B1D000802E008C8121F08C14C
:10192000002AFAD170477047002001E001C1121F60
:10193000002AFBD1704700002DE9FF4F8DB00F4604
:101940000546002606E025280BD0DDE90F1290475A
:101950006D1C761C28780028F5D111B03046BDE802
:10196000F08F0024A246A1460122EC4900E0044386
:1019700015F8013F203B02FA03F00842F7D128781E
:101980002A2810D06FF02F022878A0F13001092901
:1019900014D80AEB8A0102EB410144F0020400EB87
:1019A000010A6D1CF0E701CF5FEA000A03D544F499
:1019B0000054CAF1000A44F002046D1C28782E2855
:1019C00017D115F8010F44F004042A280ED06FF047
:1019D0002F022878A0F1300109290AD809EB8901E2
:1019E00002EB410100EB01096D1CF2E757F8049B83
:1019F0006D1C28786C280FD006DC4C2817D068287E
:101A00000DD06A2814D104E0742810D07A280FD1A0
:101A10000DE044F400140AE044F4801401E044F4BE
:101A200040146978814202D104F580146D1C6D1C4C
:101A30002A786E2A1FD00CDC632A31D004DC002AFD
:101A40008BD0582A11D1A3E0642A68D0692A0CD11E
:101A500065E0732A2ED004DC6F2A73D0702A04D17B
:101A60009BE0752A6FD0782A6ED01046DDE90F1200
:101A70009047761C50E1C4F30250022806D0032898
:101A800009D0042801CF09D0066045E101CFF11744
:101A9000C0E9006140E101CF06803DE106703BE115
:101AA00017F8040B8DF8000000208DF80100EB46BC
:101AB000012003E057F804BB4FF0FF3061074FF0FF
:101AC000000102D40DE008F10101884649450FDA12
:101AD0008045F8DB1BF808100029F4D108E008F174
:101AE000010188468142FADB1BF808100029F6D173
:101AF000DDE90F23AAEB08008146214600F036F904
:101B0000304400EB080604E0DDE90F121BF8010B7E
:101B10009047B8F10108F7D221464846F7E00A217C
:101B2000C4F302534FF0000B0891022B04D001CFF5
:101B3000C117032B09D00AE0FF1D27F00707F7E8BC
:101B4000020108E032E01FE020E000B2C117042BE0
:101B500001D140B2C117031E71F1000307DA4FF043
:101B6000000CD0EB0C006CEB01012D2302E02305EF
:101B700004D52B238DF82430012303E0E30701D0A3
:101B80002023F7E7984658E00A2110E010210EE0E4
:101B900010204FF0000B08900CE010214FF0000BCC
:101BA00044F004044FF00809089103E008214FF0C5
:101BB000000B0891C4F30253022B04D001CF002183
:101BC000032B06D006E0FF1D27F00707F7E8020108
:101BD00003E080B2042B00D1C0B24FF0000823070D
:101BE0002BD5702A07D0DDF820C08CF0100C5CEAF1
:101BF0000B0C05D00EE040238DF82430012308E0C3
:101C000050EA010306D030238DF824308DF82520CA
:101C100002239846DDF820C08CF0080C5CEA0B0C1F
:101C20000BD150EA010301D1630706D530238DF8AB
:101C300024304FF00108A9F10109582A04D038A234
:101C40000B9208AA0A920BE03AA2F9E75B46089ABF
:101C5000FEF77FFA0B9B9B5C0A9A521E0A92137046
:101C600050EA0102F2D10A98ADEB000000F1200B1E
:101C7000600702D524F4803401E04FF00109D94512
:101C800002DDA9EB0B0000E0002000EB0B0141445A
:101C90000890AAEB010AE00306D4DDE90F232146F0
:101CA000504600F063F806444FF0000908E009A927
:101CB00011F80900DDE90F12904709F10109761CBE
:101CC000C145F4DBE0030CD5DDE90F232146504686
:101CD00000F04CF8064404E0DDE90F123020904794
:101CE000761C0899481E08900029F5DC08E00A983F
:101CF0000A990078491C0A91DDE90F129047761C79
:101D0000BBF10001ABF1010BF1DC21465046DDE9EE
:101D10000F2300F019F806446D1C1BE6092801008A
:101D20003031323334353637383961626364656651
:101D30000000000030313233343536373839414213
:101D400043444546000000002DE9F04104460025CB
:101D50001E461746880404D405E039462020B047C3
:101D60006D1C641EF9D52846BDE8F0812DE9F041CF
:101D7000044600251E469046C80301D5302700E0E2
:101D80002027880404D505E041463846B0476D1C3D
:101D9000641EF9D52846BDE8F0810A68531C0B6023
:101DA0001070704708B5FEF73DFBFFF75DFCFFF7CD
:101DB000F9F9FFF747FA5C485A490C2201604FF4E1
:101DC000E131416000218160C160C0E9041281619C
:101DD000C161FFF72CF900B1FEE7FFF77BFB524C26
:101DE0004FF47A764FF480556C3C3046FEF71AFA81
:101DF0000020FFF7A3FA02464B484CA18038FFF7BA
:101E000077FD49488038FEF79DF9474982B22B4655
:101E100080394548FFF768F90120FFF78FFA02463D
:101E2000414847A18038FFF763FD3F488038FEF7FF
:101E300089F93D4982B22B4680393B48FFF754F976
:101E40000220FFF77BFA0246374841A18038FFF7AE
:101E50004FFD35488038FEF775F9334982B22B467D
:101E600080393148FFF740F90720FFF767FA02464B
:101E70002D483CA18038FFF73BFD2B488038FEF70A
:101E800061F9294982B22B4680392748FFF72CF99E
:101E90000620FFF753FA0246234837A18038FFF7A0
:101EA00027FD21488038FEF74DF91F4982B22B46A5
:101EB00080391D48FFF718F91B4903226C3910209F
:101EC000FFF76CFAA07800901748637822782FA16A
:101ED0008038FFF70DFD14488038FEF733F91249BA
:101EE00082B22B4680391048FFF7FEF80E490322D4
:101EF0006C390B20FFF752FAA07800900A486378FB
:101F000022782BA18038FFF7F3FC07488038FEF7D2
:101F100019F9054982B22B4680390348FFF7E4F8E6
:101F200063E70000003801408C000020434F4E461C
:101F300049473A203078253032580D0A0000000019
:101F4000454E5F41413A203078253032580D0A0025
:101F5000454E5F5258414444523A20307825303241
:101F6000580D0A005354415455533A2030782530C7
:101F700032580D0A0000000052465F534554555038
:101F80003A203078253032580D0A000054585F410D
:101F90004444523A203078253032582C203078256D
:101FA0003032582C203078253032580D0A0000008D
:101FB00052585F414444523A203078253032582CF0
:101FC000203078253032582C203078253032580D8A
:101FD0000A000000000000000000000001020304ED
:101FE0000607080900000000010203040C20000895
:101FF000000000200C00000018190008182000083C
:102000000C000020C404000028190008B3B401002B
:082010000000000000A24A04D8
:04000005080000ED02
:00000001FF
