:100000000A128A11FC2F00308A000408840A820731
:100010000034073400340F3400341034003410340A
:10002000003410340034103400340F340034003401
:1000300000340E3400341B340034113400341134D5
:10004000003411340034113400341F3400340034CF
:1000500000340E3400341B340034113400341134B5
:100060000034113400341F3400341F3400340034A1
:1000700000340E3400341B34003411340034113495
:1000800000341F3400341F3400341F340034003473
:1000900000340E3400341B340034113400341F3467
:1000A00000341F3400341F3400341F340034003453
:1000B00000340E3400341F3400341F3400341F3435
:1000C00000341F3400341F3400341F340034003433
:1000D00000340034003404340034023400341F345B
:1000E000003402340034043400340034003400346A
:1000F000003400340034003400340E340034113441
:100100000034113400340A3400341B340034003419
:0E0110000034483465346C346C346F34003481
:100B700000300A128A11D3250A128A1101300A1292
:100B80008A11D3250800FB007908FA007A08F400DE
:100B900078080A128A1173270A128A117B080A122E
:100BA0008A1105260800F300831203130610730848
:100BB0000A128A11EB250A128A11831203130615F1
:100BC00006110B30F2006230F100F10BE52DF20B53
:100BD000E52D00000800F000701CF22D83120313B5
:100BE0000616F52D831203130612F01CF92D861636
:100BF000FA2D8612701DFE2D0617FF2D0613F01D0F
:100C0000032E8617080086130800F5007508840077
:100C10000A128A1103200A128A11003A03190800E5
:100C2000750884000A128A1103200A128A110A1216
:100C30008A1121260A128A110130F4007408F5077E
:100C4000062EF3008312031306147308F100043018
:100C50000310F10CFF3E031D282E71080A128A11A1
:100C6000EB250A128A118312031306150611730865
:100C70000F390A128A11EB250A128A118312031303
:100C8000061506110B30F2006230F100F10B462E12
:100C9000F20B462E0000080004300A128A11D325F8
:100CA0000A128A1100300A128A11D3250A128A11F7
:100CB000F501403075020318742E7508F4007407AE
:100CC000013E84000A128A1103200A128A110A12B4
:100CD0008A1121260A128A110130F4007408F507DE
:100CE00040307502031C5D2E00300A128A11D32594
:100CF0000A128A1102300A128A11D32508000A1238
:100D00008A11EA260A128A110A128A11B8250A12D1
:100D10008A110A128A114C260A128A110A128A11A1
:100D2000B8250A128A11F401F40A01300A128A1154
:100D300073270A128A1100300A128A1121260A1218
:100D40008A1101300A128A1121260A128A110230F0
:100D50000A128A1121260A128A1103300A128A11F4
:100D600021260A128A1104300A128A1121260A1237
:100D70008A1105300A128A1121260A128A110630B8
:100D80000A128A1121260A128A1107300A128A11C0
:100D900021260A128A11023083120313A0002008B0
:100DA000F8000230A1002108F90081300A128A11EE
:100DB000C3250A128A110B3083120313A2002630B6
:100DC000A1005D30A000A00BE32EA10BE32EA20B2F
:100DD000E32E8E2E83160313061286120613861335
:100DE0000610861006113430F500F130F400F40BD3
:100DF000F72EF50BF72EFC2E03300A128A11D3259D
:100E00000A128A116830F500E430F400F40B062F62
:100E1000F50B062F000003300A128A11D3250A129F
:100E20008A116830F500E430F400F40B152FF50B4F
:100E3000152F000003300A128A11D3250A128A11D5
:100E40006830F500E430F400F40B242FF50B242F68
:100E5000000002300A128A11D3250A128A11683062
:100E6000F500E430F400F40B332FF50B332F0000C2
:100E700002300A128A11D3250A128A1108300A1286
:100E80008A11D3250A128A1100300A128A11D32539
:100E90000A128A1108300A128A11D3250A128A11FD
:100EA00000300A128A11D3250A128A1101300A125F
:100EB0008A11D3250A128A1100300A128A11D32509
:100EC0000A128A1106300A128A11D3250A128A11CF
:100ED00000300A128A11D3250A128A110C300A1224
:100EE0008A11D3250800F60028307602031C7C2FD7
:100EF0002730F5007508F60004307402031C842FB7
:100F00000330F5007508F400F7018312031306108F
:100F1000ED2F7608803EF5007508F7047708F50098
:100F200004300310F50CFF3E031D912F75080A12C3
:100F30008A11D3250A128A1177080F390A128A11E9
:100F4000D32508007608C03EF5007508F704770839
:100F5000F50004300310F50CFF3E031DAA2F7508A1
:100F60000A128A11D3250A128A1177080F390A1238
:100F70008A11D32508007608943EF5007508F70419
:100F80007708F50004300310F50CFF3E031DC32F56
:100F900075080A128A11D3250A128A1177080F39A7
:100FA0000A128A11D32508007608D43EF500750888
:100FB000F7047708F50004300310F50CFF3E031D1D
:100FC000DC2F75080A128A11D3250A128A117708B4
:100FD0000F390A128A11D32508007408003A031940
:100FE000892F013A0319A22F033A0319BB2F013AA3
:100FF0000319D42FFB2F080083010A128A117F2EB8
:00000001FF
