:020000040800F2
:10000000D00400200101000813150008371400086F
:1000100011150008F7010008CD1C000800000000C1
:1000200000000000000000000000000003190008AC
:10003000F9010008000000002D180008051900084B
:100040001B0100081B0100081B0100081B01000820
:100050001B0100081B0100081B0100081B01000810
:100060001B0100081B0100081B0100081B01000800
:100070001B0100081B0100081B0100081B010008F0
:100080001B0100081B0100081B0100081B010008E0
:100090001B0100081B0100081B0100081B010008D0
:1000A0001B0100081B0100081B0100081B010008C0
:1000B0001B0100081B0100081B0100081B010008B0
:1000C0001B0100081B0100081B0100083118000873
:1000D0001B010008C11C00081B0100081B010008CF
:1000E0001B0100081B0100081B010008DFF80CD0F1
:1000F00000F060F80048004785210008D004002087
:100100000648804706480047FEE7FEE7FEE7FEE7B1
:10011000FEE7FEE7FEE7FEE7FEE7FEE77D190008E3
:10012000ED000008202A04DB203A21FA02F0002129
:10013000704721FA02F3D040C2F1200291400843F7
:1001400019467047421C10F8011B0029FBD1801A88
:1001500070472DE9F05F0546002092469B46884691
:100160000646814640241BE0284641464746224633
:10017000FFF7D8FF53465A46C01A914110D3114693
:100180001846224600F028F82D1A67EB01084F4662
:1001900022460120002100F01FF817EB00094E4114
:1001A000201EA4F10104DFDC484631462A464346BE
:1001B000BDE8F09F064C074D06E0E06840F0010303
:1001C00094E8070098471034AC42F6D3FFF792FF4B
:1001D000C0230008E0230008202A04DB203A00FAAC
:1001E00002F1002070479140C2F1200320FA03F38E
:1001F000194390407047FEE77047000001B507487B
:1002000007490068B0FBF1F0009948430090411E97
:10021000009101D30846FAE708BD0000080000205D
:100220004054890010B590F821100024022903D011
:100230000421816301243DE001680A6822F00E0276
:100240000A6001680A6822F001020A601A4A01681D
:10025000914201D1012121E0174A1432914201D18A
:1002600010211BE0144A2832914201D1891515E072
:10027000114A3C32914201D189140FE00E4A5032AA
:10028000914202D14FF4803108E00B4A643291422E
:1002900002D14FF4801101E04FF08071064A083A14
:1002A0005160012180F82110002180F82010416B5D
:1002B00001B18847204610BD080002402DE9F84FE3
:1002C000DFF890A100220AF1040B144601274FF039
:1002D0000F090BF1040E00BF0B6807FA04F52B4061
:1002E000AB4274D1DFF870C14E68A6EB0C086645CE
:1002F0002BD00DDC032E34D005DC36B3012E19D003
:10030000022E2FD11BE0112E16D0122E2AD119E069
:10031000B8F5881F19D006DCB8F5803F15D0B8F5C0
:10032000801F1FD111E0B8F5001F0ED0B8F5041FD3
:1003300018D10AE0CA6815E0CA68121D12E0CA683E
:1003400008320FE0CA680C320CE08A682AB1012A30
:100350004FF0080203D0456104E0042202E0056189
:1003600000E00022FF2B01D8064601E000F1040660
:100370004FEA840501D9A5F12005D6F800C009FA95
:1003800005F82CEA080C02FA05F54CEA050CC6F84B
:1003900000C04D68ED0057D5304DAE6946F00106FE
:1003A000AE61AD6924F0030605F0010500952C4D02
:1003B00006EB050CDCF80850A6074FEA167809FA98
:1003C00008F6B543274EB04202D1002610E03BE0CC
:1003D000254EB04201D101260AE0244EB04201D19F
:1003E000022605E0224EB04201D1032600E0042699
:1003F00006FA08F62E43CCF808604D68DAF800607B
:10040000ED03554601D51E4300E09E432E604D6826
:10041000DBF80060AD035D4601D51E4300E09E435E
:100420002E604D68DEF80060ED02754601D51E4372
:1004300000E09E432E604D68AD020E4D2E6801D542
:100440001E4300E09E432E60641C102CFFF444AF5A
:10045000BDE8F88F000401400000111000100240B8
:100460000000014000080140000C01400010014064
:10047000001401400C0401400AB1016170470904F5
:10048000FBE70000014800687047000004000020FE
:1004900002480168491C0160704700000400002008
:1004A000074810B5016841F010010160032000F019
:1004B00093F8002000F006F800F018F8002010BDB6
:1004C0000020024010B5044607484FF47A710068D6
:1004D000B0FBF1F000F049FE00222146501E00F072
:1004E0005BF8002010BD000008000020224808B57D
:1004F000816941F001018161816901F0010100918F
:10050000C16941F08051C161C06900F08050009024
:10051000032000F061F8002211466FF00B0000F09C
:100520003BF8002211466FF00A0000F035F8002277
:1005300011466FF0090000F02FF800221146501FFD
:1005400000F02AF800221146101F00F025F80022C2
:100550001146901E00F020F800221146501E00F0B7
:100560001BF80648416821F0E0614160416841F0B4
:100570000071416008BD0000001002400000014011
:1005800000F01F02012191404009800000F1E020AD
:10059000C0F8001170470000F0B40E4B1B680C4609
:1005A000C3F30223C3F10705042D00D90425191D47
:1005B000072901D2002300E0DB1E012606FA05F11F
:1005C000491E214099409E40761E16403143F0BCA2
:1005D00001F01CB90CED00E0064900F007020868C4
:1005E0004FF6FF03184040EA0220034A1043086018
:1005F000704700000CED00E00000FA052DE9F0471F
:10060000DFF83C8105460E46D8F8000000F00700F0
:10061000B0420CD2D8F8001021F007013143C8F8DD
:100620000010D8F8000000F00700B04263D128782D
:10063000444C800705D56068A96820F0F0000843A5
:1006400060602878C00745D06868012816D0216806
:10065000022816D0890700294DDA616821F00301CC
:1006600001436160FFF70EFF6968074641F2883079
:1006700001290FD00229814619D027E0216889037A
:10068000E9E78901E7E700BFFFF7FCFEC11B494529
:1006900001D918E081466068C0F381000128F3D1D8
:1006A00018E000BFFFF7EEFEC11B49450BD860689C
:1006B000C0F381000228F5D10CE000BFFFF7E2FE95
:1006C000C11B494502D90320BDE8F087606810F0DE
:1006D0000C0FF3D1D8F80010404601F00701B142E9
:1006E0000BD9016821F0070131430160006800F077
:1006F0000700B04201D00120E6E72878400705D581
:100700006068E96820F4E0600843606028780007CA
:1007100006D56068296920F4605040EAC100606035
:1007200000F03CF86168084AC1F30311515CC8400D
:10073000064908600020FFF7C5FE0020C4E700005E
:100740000020024000100240A823000808000020FA
:10075000014800687047000008000020044805496F
:1007600000684968044AC1F30221515CC8407047DF
:100770000800002000100240B82300080448054982
:1007800000684968044AC1F3C221515CC8407047FF
:100790000800002000100240B823000810B512A382
:1007A00085B00FCB8DE80F0013A0144B00680490A8
:1007B0005A68134802F00C0104290FD008290DD102
:1007C000C2F38344D2031DF8041009D55A6804AB60
:1007D000C2F340429A5CB0FBF2F0484305B010BD52
:1007E00008484843FAE70000020304050607080921
:1007F0000A0B0C0D0E0F1010010200000010024039
:1008000000127A0000093D002DE9F84F04460078F7
:10081000B94DC00748D06868C0F38100012807D0EF
:100820006868C0F38100022809D16868C00306D552
:100830002868800338D5606800286FD034E060688D
:10084000B0F5803F0BD010B1B0F5A02F11D02868C3
:1008500020F480302860286820F4802002E0286896
:1008600040F480302860606888B1FFF70BFE0646D0
:1008700009E0286840F480202860F0E7FFF702FED6
:10088000801B642875D828688003F7D50CE0FFF733
:10089000F9FD064605E000BFFFF7F4FD801B642864
:1008A000F0D828688003F7D42078944E80074FF062
:1008B00001094FF000083BD5686810F00C0F07D015
:1008C0006868C0F38100022809D16868C00306D4B3
:1008D0002868800714D5206901281FD110E02069FD
:1008E000B0B1C6F80090FFF7CDFD074605E000BFA8
:1008F000FFF7C8FDC01B0228C4D828688007F7D5B9
:100900002868616920F0F80040EAC10028600FE023
:10091000C6F80080FFF7B6FD074606E0E9E000BF35
:10092000FFF7B0FDC01B022823D828688007F7D442
:10093000207800072CD57248A169D9B1C0F8009081
:10094000FFF7A0FD074604E0FFF79CFDC01B02284F
:100950000FD8686A8007F7D56A484FF4FA510068E3
:10096000B0FBF1F0009000BF0098411E0091FAD258
:100970000EE080E0C0F80080FFF784FD074604E049
:10098000FFF780FDC01B022875D8686A8007F7D47E
:100990002078400760D5E8690027C00008D4E869DE
:1009A00040F08050E861E869012700F08050009035
:1009B00055480168C90513D40168834641F4807124
:1009C0000160FFF75FFD824606E000BFFFF75AFDBA
:1009D000A0EB0A0064284ED8DBF80000C005F5D56E
:1009E000E06801280AD008B1052813D0286A20F051
:1009F00001002862286A20F0040002E0286A40F022
:100A000001002862E06841F2883B98B1FFF73AFDA7
:100A100082460BE0286A40F004002862EEE700BF3F
:100A2000FFF730FDA0EB0A0159455AD8286A800724
:100A3000F6D50CE0FFF726FD824605E0FFF722FD24
:100A4000A0EB0A0159454CD8286A8007F6D41FB19B
:100A5000E86920F08050E861E06988B36968C1F313
:100A60008101022945D00228C6F8608004D0FFF732
:100A700009FD044638E034E0FFF704FD074604E0D2
:100A8000FFF700FDC01B02282BD828688001F7D48F
:100A9000206AB0F5803F05D16868A16820F4003075
:100AA00008436860D4E908010843696821F47411B7
:100AB00008436860C6F86090FFF7E4FC044606E06F
:100AC00015E000BFFFF7DEFC001B022809D82868EC
:100AD0008001F7D50BE000BFFFF7D4FC001B022814
:100AE00002D90320BDE8F88F28688001F4D40020E3
:100AF000F8E70120F6E70000001002400000424243
:100B0000800442420800002000700040704700004E
:100B100038B504460068426881684B0605D4CB07A7
:100B200003D0530601D5216C04E08B0707D51306CB
:100B300005D5616C01B02046BDE83040084711F092
:100B4000600F3FD093063DD54B060AD594F851303F
:100B5000032B34D0636D43F004036365C36883687B
:100B60000093890609D5616D41F0010161658168D5
:100B70000091016821F040010160606D002821D0E2
:100B80002068416821F0E0014160012084F85100B3
:100B9000900718D02068416821F0030141600C4D96
:100BA000E06C18B14563E06CFFF73CFBA06C0028DB
:100BB00008D04563A06CBDE83840FFF733BBC1687F
:100BC0008068009038BD2046FFF7A0FF38BD0000C8
:100BD0005D18000870B5040005D00025A56294F8E2
:100BE000510010B104E0012070BD204600F034F83F
:100BF000022084F851002068016821F04001016062
:100C0000D4E901010843D4E903121143084361699F
:100C10000843218B01F400710843E1690843216A0C
:100C20000843A16A084321680860A069042101EA19
:100C30001040616A0843216848602168E06A0861E1
:100C40002068C16921F40061C1616565012084F8F3
:100C50005100002070BD000010B50068154986B035
:100C6000884224D11448816941F4805181618069AE
:100C7000124C00F480500490A020009002200190BB
:100C80000320039069462046FFF718FB002140200F
:100C9000CDE90001029169462046FFF70FFB0022D3
:100CA00011462320FFF778FC2320FFF769FC06B0EC
:100CB00010BD00000030014000100240000801405B
:100CC0002DE9F84F044640680026984617460D4621
:100CD0004FF00409B0F5827F01D1A06890B194F87B
:100CE0005000012819D04FF0010B84F850B0FFF7E5
:100CF000C9FB009094F851004FF0000A01280ED073
:100D000002267FE084F8519013460A462046CDF82B
:100D1000008000F031F9BDE8F88F0220FBE7002DDC
:100D20006FD0002F6DD084F85190C4F854A0A56303
:100D3000A787E787C4F830A0A4F834A0A4F836A0A9
:100D4000C4F840A0C4F844A0A0684FF40047B842DB
:100D500004D12068016821F48041016020680168A5
:100D6000490603D4016841F040010160E068B8B170
:100D700033E020688168C90706D0007B05F8010BC5
:100D8000E08F401EE0870BE0B8F1000F23D0B8F1F0
:100D9000FF3F05D0FFF776FB0099411A41451AD273
:100DA000E08F0028E5D11BE020688168C90706D0E4
:100DB000C06825F8020BE08F401EE0870DE0B8F117
:100DC000000F08D0B8F1FF3F07D0FFF75BFB009999
:100DD000411A414501D3032614E0E08F0028E3D1F6
:100DE0006068B0F5827F0AD1A068B84202D0B0F541
:100DF000806F04D12068016821F040010160606DBE
:100E000000B1012684F851B084F850A0304682E742
:100E10002DE9F84F044690F85000002699461746F1
:100E20000D4601280DD04FF0010B84F850B0FFF7AC
:100E300029FB804694F85100B246012804D00226CE
:100E400094E00220BDE8F88F002D7BD0002F79D0F0
:100E5000032084F85100C4F854A02563A786E786D0
:100E6000C4F838A0A4F83CA0A4F83EA0C4F844A05C
:100E7000C4F840A0A068B0F5004F04D12068016814
:100E800041F48041016020680168490603D401688B
:100E900041F040010160E068B0F5006F606804D087
:100EA00030B3E08E012823D03EE010B1E08E01285F
:100EB0001AD135F8021B206805E02068816889078F
:100EC00006D535F8021BC160E08E401EE0860BE0BF
:100ED000B9F1000F34D0B9F1FF3F05D0FFF7D2FAD6
:100EE000A0EB080149452BD2E08E0028E5D11EE099
:100EF000216815F8010B087306E0206881688907EE
:100F000006D515F8011B0173E08E401EE0860BE04C
:100F1000B9F1000F14D0B9F1FF3F05D0FFF7B2FAD5
:100F2000A0EB080149450BD2E08E0028E5D14B46E5
:100F3000012202212046CDF8008000F097FC10B17C
:100F4000032613E011E042464946204600F076FCB5
:100F500018B101262020606508E0A06818B9206853
:100F6000C16880680090606D00B1012684F851B0BE
:100F700084F850A0304665E72DE9F84F044690F814
:100F8000500000260A9F9A4693460D464FF00108EE
:100F900001280ED0012084F85000FFF773FA814633
:100FA00094F85100616801280CD0B1F5827F07D117
:100FB00002E00220BDE8F88FA16809B9042801D039
:100FC0000226BDE055B1BBF1000F07D0BAF1000F0A
:100FD00004D094F85100012802D004E00126AFE0CB
:100FE000052084F8510000206065C4F838B0A4F8EA
:100FF0003EA0A4F83CA02563A4F836A0A4F834A031
:101000002064606420680168490603D4016841F0E7
:1010100040010160E068B0F5006F606804D0E8B39B
:10102000E08E01283BD06AE010B1E08E01282ED17D
:10103000216835F8020BC860E08E401EE08626E08D
:10104000B8F1000F0DD0E08E58B120688168890793
:1010500007D535F8021BC160E08E401EE0864FF0D8
:101060000008E08F58B120688168C90707D0C068C0
:101070002BF8020BE08F401EE0874FF00108781C30
:1010800005D0FFF7FFF9A0EB0900B84246D2E08E89
:101090000028D5D1E08F0028D2D136E0FFE72168C3
:1010A00015F8010B0873E08E401EE08627E000BFB4
:1010B000B8F1000F0DD0E08E58B120688168890723
:1010C00007D515F8011B0173E08E401EE0864FF036
:1010D0000008E08F58B120688168C90707D0C06850
:1010E0000BF8010BE08F401EE0874FF00108781CE1
:1010F00005D0FFF7C7F9A0EB0900B8420ED2E08E89
:101100000028D5D1E08F0028D2D13B460122022110
:101110002046CDF8009000F0A9FB08B103260FE0AF
:101120004A463946204600F089FB18B101262020A6
:10113000606505E0A06818B92068C1688068009003
:10114000012084F85100002084F85000304631E737
:101150004FF0E0210428086903D020F00400086162
:10116000704740F00400FAE7704710B5401EB0F138
:10117000807F01D3012010BD4FF0E02460610F217A
:10118000601700F043FB0020A061072020610020D1
:1011900010BD10B5FFF7E8FF10BD704770B50268CD
:1011A00004461068D168536910F00F0F50D003F057
:1011B000010501F4907635435DD0C20705D0CA051C
:1011C00003D5E26B42F00102E263420705D5DA077C
:1011D00003D0E26B42F00202E263820705D5DA0730
:1011E00003D0E26B42F00402E263020705D5DA079E
:1011F00003D0E26B42F00802E263E26B002A33D0D4
:10120000800604D5880602D5204600F0F1FB206850
:101210004069E16BC0F38010090700D428B3204671
:1012200000F0D8FB2068416949061AD5416921F0D0
:1012300040014161606BA0B11B494163606BFEF7E7
:10124000F1FF002810D0606B416BBDE8704008478B
:10125000830610D58B060ED52046BDE8704000F001
:10126000C7BB2046FFF799FF70BD2046FFF795FFEB
:101270000020E06370BD030606D50B0604D52046AA
:10128000BDE8704000F0B8BC4006F3D54806F1D583
:10129000D168204621F04001D160202184F8391026
:1012A00000F0C8F870BD0000C519000870B5040052
:1012B00004D094F83900002510B106E0012070BD7B
:1012C00084F83850204600F023F8242084F83900B0
:1012D0002068C16821F40051C160204600F0D4FBB1
:1012E0002068016921F4904101612068416921F081
:1012F0002A0141612068C16841F40051C160E56381
:10130000202084F8390084F83A00002070BD0000E5
:1013100010B50068154986B0884225D11448816906
:1013200041F4804181618069124C00F48040049056
:101330004FF4007000900220019003200390694652
:101340002046FEF7BBFF00212015CDE900010291E8
:1013500069462046FEF7B2FF002211462520FFF71E
:101360001BF92520FFF70CF906B010BD003801402D
:10137000001002400008014070472DE9F843044680
:1013800090F839001F4616460D46202850D1A5B1C9
:101390009EB194F8380001284AD0012084F8380022
:1013A0004FF00008C4F83C80212084F83900FFF792
:1013B00069F8A6848146E68426E00120BDE8F8832A
:1013C000E08C401EE084A0684B46B0F5805F4FF093
:1013D00000024FF080012046009703D000F03DFC52
:1013E000E8B90DE000F039FCC8B928882168C0F3DD
:1013F00008004860206908B16D1C05E0AD1C03E0E1
:10140000216815F8010B4860E08C0028D8D14B46C4
:10141000002240212046009700F01FFC08B1032065
:10142000CCE7202084F8390084F838800020C5E714
:101430000220C3E77047FEE7F0B5224885B0816916
:1014400041F010018161816901F01001049181690D
:1014500041F020018161816901F0200104918169DD
:1014600041F0040181618069174E00F004004FF4DF
:1014700000540490002221463046FEF7FDFF134F32
:10148000002218213846FEF7F7FF009401240225B8
:101490006946304603950194FEF710FF0420009042
:1014A00000200190029069463846FEF707FF182099
:1014B000CDE90004694603953846FEF7FFFE05B006
:1014C000F0BD000000100240001001400008014083
:1014D0000E4810B50C4901604FF482714160002143
:1014E0008160C1604FF400720161C0E905122022E1
:1014F000C0E90721416281620A21C162FFF76AFBEC
:10150000002800D0FEE710BD00300140340000206C
:10151000FEE7704710B5002000F056F840F00301D8
:10152000002000F0CDF8012208210648FEF7A4FFB4
:101530009620FEF763FE00F007F8BDE8104000F0CB
:1015400023B800000008014038B50CA00C4C00681E
:101550000090002210212046FEF78EFF4FF47A7390
:10156000012269460748FFF753FC0120FEF746FEBB
:10157000012210212046FEF77FFF38BDE200000067
:10158000000801403400002038B50CA00C4C006865
:101590000090002210212046FEF76EFF4FF47A7370
:1015A000012269460748FFF733FC0120FEF726FEBB
:1015B000012210212046FEF75FFF38BDE100000048
:1015C000000801403400002031B584B00020144DE3
:1015D0008DF80400024610212846FEF74DFF4FF417
:1015E0007A74012301AA04A90E480094FFF7C4FCF1
:1015F0009DF81000072809D0FF208DF8080001236E
:1016000001AA02A907480094FFF7B6FC01221021A5
:101610002846FEF731FF9DF8040005B030BD0000FC
:101620000008014034000020F7B50E4C16460F4666
:10163000002210212046FEF71FFF4FF47A752B463B
:10164000012269460848FFF7E3FB2B46324639463C
:101650000548FFF735FB012210212046FEF70CFF5D
:10166000FEBD0000000801403400002038B511A084
:10167000114C00680090002210212046FEF7FCFE6D
:101680004FF47A752B46012269460C48FFF7C0FBE0
:101690000120FEF7B3FD73208DF800002B460122D8
:1016A00069460648FFF7B4FB012210212046FEF7E9
:1016B000E3FE38BD50000000000801403400002067
:1016C00073B5104C9DF80000002240F020008DF80A
:1016D000000010212046FEF7CFFE4FF47A752B460E
:1016E000012269460848FFF793FB2B46012201A916
:1016F0000548FFF78DFB012210212046FEF7BCFEB6
:101700007CBD00000008014034000020F7B5124CF9
:101710009DF80000164640F020000F468DF80000AE
:10172000002210212046FEF7A7FE4FF47A752B46C3
:10173000012269460948FFF76BFB0120FEF75EFDB9
:101740002B46324639460548FFF762FB012210213D
:101750002046FEF791FEFEBD000801403400002047
:1017600010B5002208212648FEF786FE41F2883493
:101770002046FEF743FD0A210020FFF7A1FF204687
:10178000FEF73CFD01210846FFF79AFF01210220E8
:10179000FFF796FF01210320FFF792FF5F2104204E
:1017A000FFF78EFFFFF762FF00211D20FFF788FF84
:1017B00000211C20FFF784FF70210720FFF780FF26
:1017C0004C210520FFF77CFF06210846FFF778FF34
:1017D00003220C491020FFF799FF032209490A2030
:1017E000FFF794FF05211120FFF76AFFFFF792FE34
:1017F0000122BDE8104051030348FEF73DBE000042
:101800000008014000000020001001400907090EF7
:10181000002806DA00F00F0000F1E02080F8141D27
:10182000704700F1E02080F8001470477047000016
:101830000148FFF76DB900003400002038B50B46B1
:10184000009204460022802100F010F8002804D005
:10185000606D40F020006065032038BD10B5406A1F
:101860000021C187C186FFF751F910BD2DE9F04174
:101870001D4617460E460446DDF8188035E0681C04
:1018800033D02DB1FEF7FEFDA0EB0800A8422CD30B
:101890002068416821F0E00141606068B0F5827F16
:1018A0000BD1A068B0F5004F02D0B0F5806F04D125
:1018B0002068016821F040010160A06AB0F5005F76
:1018C0000AD1206801684DF6FF721140016020685E
:1018D000016841F400510160012084F851000020AA
:1018E00084F850000320BDE8F0812068806836EA63
:1018F000000004D00020B842C1D10020F3E701204D
:10190000F9E7704710B5FEF7C3FDBDE81040FFF7DB
:1019100040BC30B58FB001210804CDE9001000248F
:10192000029402250491CDE907504FF4C0100990AC
:101930006846FEF769FF00B1FEE70F20CDE90A0512
:101940004FF48060CDE90C4002210AA80E94FEF706
:1019500055FE00B1FEE7FEF7FBFE4FF47A71B0FBD7
:10196000F1F0FFF702FC0420FFF7F2FB0022114622
:10197000501EFEF711FE0FB030BD00000D4801688B
:1019800041F00101016041680B4A1140416001686A
:101990000A4A11400160016821F480210160416818
:1019A00021F4FE0141604FF41F0181600449C0032E
:1019B00008607047001002400000FFF8FFFFF6FECD
:1019C00008ED00E010B5406A0021C185C184FFF731
:1019D000E4FB10BD0168CA6822F49072CA60016815
:1019E0004A6922F001024A61202180F83A107047CA
:1019F00010B590F83A10222901D0022010BD81685C
:101A0000B1F5805F11D00169002901681FD04968D4
:101A100001F07F03816A4A1C82620B70C18D491EEE
:101A20000904090CC18518D02BE00269816A002ADB
:101A30000268526805D0D2B20A80816A491C81626C
:101A4000ECE7C2F308020A80816A891CF7E74A685A
:101A5000816A4B1C83620A70E0E70168CA6822F061
:101A60002002CA600168CA6822F48072CA600168F4
:101A70004A6922F001024A61202180F83A10FFF7FA
:101A80007BFC002010BD00002DE9F04104460068F9
:101A90000169E26821F44051114301612169A068A4
:101AA0000843616908432168CA6841F20C639A439C
:101AB0000243CA6020684169A26921F44071114360
:101AC00041614C4920686425322688423CD1FEF7AA
:101AD00055FE00EBC00101EB001061688900B0FB0E
:101AE000F1F7FEF74BFE00EBC00101EB001061685F
:101AF000B0468900B0FBF1F0B0FBF5F06FF01801D3
:101B0000484307EB800106EB0110B0FBF5F000F055
:101B1000F006FEF733FE00EBC00101EB0010616838
:101B20008900B0FBF1F0B0FBF5F006EB0016FEF714
:101B300025FE00EBC00101EB001061688900B0FBDD
:101B4000F1F7FEF71BFE3BE0FEF708FE00EBC001DD
:101B500001EB001061688900B0FBF1F7FEF7FEFDB4
:101B600000EBC00101EB00106168B0468900B0FBDA
:101B7000F1F0B0FBF5F06FF01801484307EB80017E
:101B800006EB0110B0FBF5F000F0F006FEF7E6FD05
:101B900000EBC00101EB001061688900B0FBF1F0BF
:101BA000B0FBF5F006EB0016FEF7D8FD00EBC00128
:101BB00001EB001061688900B0FBF1F7FEF7CEFD84
:101BC00000EBC00101EB001061688900B0FBF1F08F
:101BD000B0FBF5F06FF01801484307EB800108EB0C
:101BE0000110B0FBF5F0216800F00F003044886070
:101BF000BDE8F0810038014090F83910212901D06A
:101C0000022070478168B1F5805F016A0BD04A1CE1
:101C10000262026809785160C18C491E0904090CEE
:101C2000C1840ED017E009880268C1F30801516031
:101C300001690029016A02D0491C0162ECE7891C94
:101C4000FBE70168CA6822F08002CA600068C168C8
:101C500041F04001C160002070472DE9F0419846F5
:101C600017460E460446069D1DE0681C1BD02DB18C
:101C7000FEF708FCA0EB0800A84214D92068C16850
:101C800021F4D071C1602068416921F001014161F6
:101C9000202084F8390084F83A00002084F83800C5
:101CA0000320BDE8F0812068006836EA000004D017
:101CB0000020B842D9D00020F3E70120F9E7000066
:101CC0000148FFF76BBA00008C000020FEE700001F
:101CD0000FB4084B10B504A902AA039800F01CF831
:101CE000044602A9002000F048FA204610BC5DF826
:101CF00014FB00007B21000802E008C8121F08C185
:101D0000002AFAD170477047002001E001C1121F7C
:101D1000002AFBD1704700002DE9FF4F8DB00F4620
:101D20000546002606E025280BD0DDE90F12904776
:101D30006D1C761C28780028F5D111B03046BDE81E
:101D4000F08F0024A246A1460122EC4900E00443A2
:101D500015F8013F203B02FA03F00842F7D128783A
:101D60002A2810D06FF02F022878A0F1300109291D
:101D700014D80AEB8A0102EB410144F0020400EBA3
:101D8000010A6D1CF0E701CF5FEA000A03D544F4B5
:101D90000054CAF1000A44F002046D1C28782E2871
:101DA00017D115F8010F44F004042A280ED06FF063
:101DB0002F022878A0F1300109290AD809EB8901FE
:101DC00002EB410100EB01096D1CF2E757F8049B9F
:101DD0006D1C28786C280FD006DC4C2817D068289A
:101DE0000DD06A2814D104E0742810D07A280FD1BD
:101DF0000DE044F400140AE044F4801401E044F4DB
:101E000040146978814202D104F580146D1C6D1C68
:101E10002A786E2A1FD00CDC632A31D004DC002A19
:101E20008BD0582A11D1A3E0642A68D0692A0CD13A
:101E300065E0732A2ED004DC6F2A73D0702A04D197
:101E40009BE0752A6FD0782A6ED01046DDE90F121C
:101E50009047761C50E1C4F30250022806D00328B4
:101E600009D0042801CF09D0066045E101CFF11760
:101E7000C0E9006140E101CF06803DE106703BE131
:101E800017F8040B8DF8000000208DF80100EB46D8
:101E9000012003E057F804BB4FF0FF3061074FF01B
:101EA000000102D40DE008F10101884649450FDA2E
:101EB0008045F8DB1BF808100029F4D108E008F190
:101EC000010188468142FADB1BF808100029F6D18F
:101ED000DDE90F23AAEB08008146214600F036F920
:101EE000304400EB080604E0DDE90F121BF8010B9B
:101EF0009047B8F10108F7D221464846F7E00A2199
:101F0000C4F302534FF0000B0891022B04D001CF11
:101F1000C117032B09D00AE0FF1D27F00707F7E8D8
:101F2000020108E032E01FE020E000B2C117042BFC
:101F300001D140B2C117031E71F1000307DA4FF05F
:101F4000000CD0EB0C006CEB01012D2302E023050B
:101F500004D52B238DF82430012303E0E30701D0BF
:101F60002023F7E7984658E00A2110E010210EE000
:101F700010204FF0000B08900CE010214FF0000BE8
:101F800044F004044FF00809089103E008214FF0E1
:101F9000000B0891C4F30253022B04D001CF00219F
:101FA000032B06D006E0FF1D27F00707F7E8020124
:101FB00003E080B2042B00D1C0B24FF00008230729
:101FC0002BD5702A07D0DDF820C08CF0100C5CEA0D
:101FD0000B0C05D00EE040238DF82430012308E0DF
:101FE00050EA010306D030238DF824308DF82520E7
:101FF00002239846DDF820C08CF0080C5CEA0B0C3C
:102000000BD150EA010301D1630706D530238DF8C7
:1020100024304FF00108A9F10109582A04D038A250
:102020000B9208AA0A920BE03AA2F9E75B46089ADB
:10203000FEF78FF80B9B9B5C0A9A521E0A92137054
:1020400050EA0102F2D10A98ADEB000000F1200B3A
:10205000600702D524F4803401E04FF00109D9452E
:1020600002DDA9EB0B0000E0002000EB0B01414476
:102070000890AAEB010AE00306D4DDE90F2321460C
:10208000504600F063F806444FF0000908E009A943
:1020900011F80900DDE90F12904709F10109761CDA
:1020A000C145F4DBE0030CD5DDE90F2321465046A2
:1020B00000F04CF8064404E0DDE90F1230209047B0
:1020C000761C0899481E08900029F5DC08E00A985B
:1020D0000A990078491C0A91DDE90F129047761C95
:1020E000BBF10001ABF1010BF1DC21465046DDE90B
:1020F0000F2300F019F806446D1C1BE609280100A7
:10210000303132333435363738396162636465666D
:10211000000000003031323334353637383941422F
:1021200043444546000000002DE9F04104460025E7
:102130001E461746880404D405E039462020B047DF
:102140006D1C641EF9D52846BDE8F0812DE9F041EB
:10215000044600251E469046C80301D5302700E0FE
:102160002027880404D505E041463846B0476D1C59
:10217000641EF9D52846BDE8F0810A68531C0B603F
:102180001070704708B5FEF78BF9FFF7C2FBFFF739
:1021900053F9FFF79DF9594857490C2201604FF454
:1021A000E131416000218160C160C0E904128161B8
:1021B000C161FFF77BF800B1FEE7FFF7D1FA4F4CA2
:1021C0004FF480556C3C0020FFF7FEF902464B4867
:1021D0004BA18038FFF77CFD48488038FDF7B2FFFF
:1021E000464982B22B4680394448FFF7C6F80120A1
:1021F000FFF7EAF90246414846A18038FFF768FD3B
:102200003E488038FDF79EFF3C4982B22B4680391C
:102210003A48FFF7B2F80220FFF7D6F902463748EE
:1022200040A18038FFF754FD34488038FDF78AFF1D
:10223000324982B22B4680393048FFF79EF807209A
:10224000FFF7C2F902462D483BA18038FFF740FD59
:102250002A488038FDF776FF284982B22B4680391C
:102260002648FFF78AF80620FFF7AEF90246234812
:1022700036A18038FFF72CFD20488038FDF762FF3B
:102280001E4982B22B4680391C48FFF776F81B495D
:1022900003226C391020FFF7C7F9A0780090174887
:1022A000637822782EA18038FFF712FD134880381A
:1022B000FDF748FF114982B22B4680390F48FFF7DE
:1022C0005CF80E4903226C390A20FFF7ADF9A078BB
:1022D00000900A48637822782AA18038FFF7F8FC3A
:1022E00006488038FDF72EFF044982B22B4680391C
:1022F0000248FFF742F866E7003801408C000020F2
:10230000434F4E4649473A203078253032580D0A1F
:1023100000000000454E5F41413A203078253032C0
:10232000580D0A00454E5F5258414444523A2030FD
:1023300078253032580D0A005354415455533A20F1
:102340003078253032580D0A0000000052465F53A5
:10235000455455503A203078253032580D0A000047
:1023600054585F414444523A203078253032582C3A
:10237000203078253032582C203078253032580DD6
:102380000A00000052585F414444523A20307825F8
:102390003032582C203078253032582C2030782597
:1023A0003032580D0A00000000000000000000005C
:1023B00001020304060708090000000001020304EB
:1023C000E0230008000000200C000000F81C0008BA
:1023D000EC2300080C000020C4040000081D0008C5
:0C23E000B3B401000000000000A24A0499
:04000005080000ED02
:00000001FF
