:0400000011EF5CF0B0
:10B79800016E01C083FF00D0828600D0829600D05F
:10B7A8001200016E01C083FF828200D0828600D021
:10B7B80082968292120048656C6C6F20576F726C8B
:10B7C80064212100000000000000206E1DC013F05D
:10B7D8001EC014F01FC015F01EC001F01FC002F0FB
:10B7E80043EC5CF00150166E205099EC5CF01200AE
:10B7F8000A6E400E096003D08298828A05D082883A
:10B80800829A0950C00F096E0A50B80FCCEC5BF051
:10B818000950400FCCEC5BF01200BE0EF66EB70E6E
:10B82800F76E000EF86E00EE35F010EE14F0090019
:10B83800F5CFEEFFE550E150FAE1000EF86E000199
:10B848006CEF5CF0000E956E949294949496949894
:10B85800949A94908280030E026E980EE82EFED77A
:10B86800022EFCD73F0ECCEC5BF0400ECCEC5BF02C
:10B87800B80ECCEC5BF0C00ECCEC5BF0120001C053
:10B8880005F002C006F002D0054A062A05C0F6FFF8
:10B8980006C0F7FFF86A0F0EF76403D00800F550EA
:10B8A80005D0F6CFE9FFF7CFEAFFEF500009D8A49B
:10B8B800EBD701C003F002C004F0031E041E034AC4
:10B8C800042A05500324016E06500420026E12005B
:10B8D80020EE35F010EE21F0130EDBCFE3FFE80683
:10B8E800FCE226EC5CF0000E136E210E146E000EC6
:10B8F800156E210E016E000E026E43EC5CF00150D5
:10B90800166E000E99EC5CF0050E1D6EF10E1E6EA3
:10B91800BF0E1F6E010EE9EC5BF0280E106E0A0ECA
:10B92800116E280EB8EC5DF0FFD7196E19C01AF029
:10B9380013C01BF0090E1A6012007F0E1B6401D0A1
:10B9480012001BC009F01A50FCEC5BF0000E1C6ED4
:10B9580024D01C50060DF3501B240B6E1C50010DF7
:10B9680014C017F015C018F0F3501726F450182219
:10B9780017C0F6FF18C0F7FFF86A0F0EF76403D078
:10B988000800F55005D0F6CFE9FFF7CFEAFFEF50F2
:10B998000C6E1A50D6EC5CF01C2A16501C5CD8B001
:10B9A8001200D7D70F6E0FC010F00BC011F0800E29
:10B9B8000C6002D0200E01D0600E0C5E828082885E
:10B9C800829A400E106012007F0E116401D012009E
:10B9D800000E126E040E126401D0120011C009F09C
:10B9E8001050FCEC5BF0050E126019D00C50050DE0
:10B9F800D10E0D6EBC0E0E6EF3500D26F4500E22B5
:10BA08001250010DF3500D26F4500E220DC0F6FF12
:10BA18000EC0F7FF0800F550FF0AD5EC5BF0112ABD
:10BA2800122AD8D7000E066E04AE06D0036C041E88
:10BA3800D8B0042A010E066E02AE06D0016C021EB2
:10BA4800D8B0022A010E061A000E086E000E076E04
:10BA580003500410D8B41CD0010E056E04D0D89041
:10BA680003360436052A04AEFAD7D89007360836C6
:10BA78000350015C04500258D8A005D00350015E61
:10BA88000450025A0780D89004320332052EEDD7AD
:10BA98000650D8B404D0076C081ED8B0082A07C0CE
:10BAA80001F008C002F012000F6E8280420EE82EEC
:10BAB800FED700D0000E0E6E400E0F6012007F0EF3
:10BAC8000B6401D012000BC009F00FC001F0026A2C
:10BAD800000E046E080E036E16EC5DF00150FCECCF
:10BAE8005BF0836895688284828200D0828600D069
:10BAF800829600D08286060EE82EFED700D083CF2D
:10BB08000EF0829607D0D8900D360C2EFCD70D502B
:10BB18000E120FD00FC00CF0070E0C16010E0D6E92
:10BB28000C2A02D0D8900D360C2EFCD70D50FF0AE7
:10BB38000E1682948292000E956E0BC009F00FC00B
:10BB480001F0026A000E046E080E036E16EC5DF03A
:10BB58000150FCEC5BF00E50D5EC5BF08280420E9D
:10BB6800E82EFED700D01200166E000E1A6E000ED8
:10BB7800196E11C01BF01C6A1150020DF31EF41E41
:10BB8800F34AF42A020EF324176E000EF420186EFE
:10BB9800000E156E000E146E94D010501B240B6E00
:10BBA8001650192458EC5DF01B50000810240B6E39
:10BBB8001650192458EC5DF010501B240B6E1950C8
:10BBC8000008162458EC5DF01B50000810240B6E7A
:10BBD80019500008162458EC5DF01B501724126EFB
:10BBE8001C501820136ED89012361336FF0E1224EC
:10BBF800146EFF0E1320156E18AE11D015BE05D0A9
:10BC080015500DE11404D8B00AD0194A1A2A19C0DF
:10BC180012F01AC013F0D8901236133631D019C06A
:10BC280012F01AC013F0121E131E124A132A1750CC
:10BC3800122618501322D89012361336FF0E1224EB
:10BC4800146EFF0E1320156E18BE23D0185003E192
:10BC58001704D8A01ED015BE1CD0155003E114043B
:10BC6800D8A017D01B06D8A01C061BC012F01CC0F9
:10BC780013F0D89012361336121E131E124A132AC6
:10BC8800010E1226000E13221250172613501822E6
:10BC980018D0194A1A2A1BC012F01CC013F0121E21
:10BCA800131E124A132A195012261A501322D8901A
:10BCB8001236133612501726135018221B06D8A016
:10BCC8001C061CBE120069D700000000000000001E
:10BCD8004F00000007000700147F147F14242A7FF8
:10BCE8002A122313086462364955224000050300CE
:10BCF80000001C2241000041221C0014083E0814C8
:10BD080008083E0808005030000008080808080025
:10BD18006060000020100804023E5149453E004280
:10BD28007F400042615149462141454B3118141268
:10BD38007F1027454545393C4A4949300171090575
:10BD4800033649494936064949291E003636000056
:10BD5800005636000008142241001414141414006C
:10BD6800412214080201510906324971413E7E11EF
:10BD780011117E7F494949363E414141227F414167
:10BD8800221C7F494949417F090909013E41494926
:10BD98003A7F0808087F00417F41002040413F0169
:10BDA8007F081422417F404040407F020C027F7F81
:10BDB8000408107F3E4141413E7F090909063E4182
:10BDC80051215E7F09192946464949493101017FB8
:10BDD80001013F4040403F1F2040201F3F4070402E
:10BDE8003F63140814630708700807615149454305
:10BDF800007F41410002040810200041417F0004F7
:10BE08000201020440404040400001020400205466
:10BE18005454787F48444438384444442838444487
:10BE2800487F3854545418087E0901020C52525263
:10BE38003E7F0804047800447D40002040443D00D3
:10BE48007F1028440000417F40007C041804787C5F
:10BE58000804047838444444387C1414140808143A
:10BE680014187C7C080404084854545420043F44A3
:10BE780040203C4040207C1C2040201C3C4030405E
:10BE88003C44281028440C5050503C4464544C44C2
:10BE9800000836410000007F00000041360800021B
:10BEA8000102020100000000007E1111117E7F498D
:10BEB8004949337F494949367F01010103E0514F20
:10BEC80041FF7F4949494177087F087741494949F6
:10BED800367F1008047F7C2112097C7F08142241D8
:10BEE80020413F017F7F020C027F7F0808087F3EC8
:10BEF8004141413E7F0101017F7F090909063E4119
:10BF080041412201017F010147281008071C227FB7
:10BF1800221C63140814637F404040FF0708080888
:10BF28007F7F407F407F7F407F40FF017F484830D0
:10BF38007F4830007F007F484830224149493E7F92
:10BF4800083E413E462919097F20545454783C4AFA
:10BF58004A49317C545428007C0404040CE0544CB5
:10BF680044FC38545454186C107C106C4444545499
:10BF7800287C2010087C7C4122117C7C10284400FD
:10BF880020443C047C7C0810087C7C1010107C3811
:10BF9800444444387C0404047C7C14141408384455
:10BFA80044442804047C04040C5050503C3048FCA1
:10BFB800483044281028447C404040FC0C101010A5
:10BFC8007C7C407C407C7C407C40FC047C50502045
:10BFD8007C5050207C7C5050200028445454387C9D
:10BFE80010384438085434147C50494331384634A6
:07BFF8003531352121000065
:020000040020DA
:08000000FFFFFFFFFFFFFFFF00
:020000040030CA
:0E000000FF071F1FFF8385FF0F400F600F409B
:00000001FF
