:0400000007EF00F016
:100008004C8288ED03F0AEEF05F0F28EF28C3FECF7
:1000180006F057EC06F058EC05F0030E0001676F88
:10002800840E666FA0EC02F0800E216E250E226E03
:10003800000E236E000E246E15EC01F0000E136EF8
:10004800A00E146E400E156E4BEC06F00BEC06F08D
:10005800E806D8A415D06E0E136E000E146E000EAE
:10006800166E020E156ECEEC05F06E0E196E000EB1
:100078001A6EF8EC03F019C077F01AC078F042D085
:100088000BEC06F00009D8A43DD0000E8AEC05F070
:1000980013C073F014C074F0E10E306EFA0E316EB6
:1000A8003F0E326E73C01BF074C01CF01EEC06F0DD
:1000B8001BC02DF01CC02EF01DC02FF026EC02F046
:1000C8002DC03CF02EC03DF02FC03EF0AAEC01F050
:1000D8003CC075F03DC076F075C077F076C078F01A
:1000E800F8EC05F0E806D8A40DD077C013F078C076
:1000F80014F0FF0E166E1568E5EC05F013C077F0E6
:1001080014C078F0000178BF0AD0D10E775D070ED1
:100118007859D8A004D0070E786FD00E776F78AFD3
:100128000AD0300E775DF80E7859D8B004D0F80EA2
:10013800786F300E776F78BF33D0785127E1770525
:10014800D8B024D02DD0000E7B6F000E7A6F000E31
:10015800CF6E000ECE6E9D80CD800B0E836E010E8D
:1001680013D07751CE5C7851CF58D8A019D00F0E44
:10017800836E020E09D07751CE5C7851CF58D8A043
:100188000FD00A0E836E040E796F0AD07951000AD7
:10019800D8B4D9D7010AD8B4E4D7020AD8B4EBD76F
:1001A80078BF34D053D7000E796F000E7A6F000EE7
:1001B800CF6E000ECE6E9D80CD800E0E836E010E2A
:1001C80023D077C06CF078C06DF06C1F6D1F6C4B3E
:1001D8006D2B6C51CE5C6D51CF58D8A037D70F0E10
:1001E800836E020E11D077C06CF078C06DF06C1F72
:1001F8006D1F6C4B6D2B6C51CE5C6D51CF58D8A0D8
:1002080025D70A0E836E040E7B6F20D77B51000A18
:10021800D8B4C9D7020AD8B4D4D7010AD8B4E3D716
:1002280015D721C025F022C026F023C027F024C00E
:1002380028F0060ED8902536263627362836E82E9A
:10024800F9D7251E261E271E281E252A000E26221F
:1002580027222822000E2524136E120E2620146E43
:100268007A0E2720156E000E2820166E21C029F060
:1002780022C02AF023C02BF024C02CF0060ED89000
:1002880029362A362B362C36E82EF9D729C017F00E
:100298002AC018F02BC019F02CC01AF05FEC04F03B
:1002A80013C02DF014C02EF02E04D8A045D021C0C4
:1002B80025F022C026F023C027F024C028F0040E21
:1002C800D8902536263627362836E82EF9D7251E23
:1002D800261E271E281E252A000E2622272228220F
:1002E800000E2524136E120E2620146E7A0E272077
:1002F800156E000E2820166E21C029F022C02AF0A3
:1003080023C02BF024C02CF0040ED89029362A36AE
:100318002B362C36E82EF9D729C017F02AC018F04A
:100328002BC019F02CC01AF05FEC04F013C02DF0AC
:1003380014C02EF02DC0AFFF2E04D8B01200AC8828
:10034800AB8E948E949CAB88AC8A12003EC040F071
:10035800416A426A3D34403601E341804050000121
:10036800656F6551D8A409D0000E3C6E000E3D6E35
:10037800000E3E6E000E3F6E1200170E406E3CC01F
:1003880041F03DC042F03EC043F04028446E04D0E6
:10039800D890433242324132442EFAD741500001BC
:1003A800606F3D8EFF0E3C16FF0E3D16000E3E168A
:1003B8003C50616F3D50626F3E50636F646B8E0EB0
:1003C800655F65AF16D06551800A8F0FD8B009D028
:1003D800000E3C6E000E3D6E000E3E6E000E3F6E2F
:1003E8001200D8906433633362336133653FF9D7C1
:1003F80015D0170E65650FD0000E3C6E000E3D6ED1
:10040800000E3E6E000E3F6E1200D89061376237C4
:100418006337643765076551D8A4F7D76051D8B4F6
:1004280008D0641F631F621F616D000E622363237F
:10043800642361C03CF062C03DF063C03EF064C01C
:100448003FF012002FC033F0346A356A2E34333649
:1004580001E334803350366E3650D8A407D0000EEE
:100468002D6E000E2E6E000E2F6E120032C033F06D
:10047800346A356A3134333601E3348033503B6EA5
:100488003B50D8A407D0000E2D6E000E2E6E000E25
:100498002F6E12003B507B0F36262FC03BF0325098
:1004A8003B1A800E3B162E8E318EFF0E3016FF0E35
:1004B8003116000E3216000E376E000E386E000E22
:1004C800396E070E3A6E2DA006D0305037263150BF
:1004D800382232503922D8902F322E322D32D890ED
:1004E8003036313632363A2EEED7090E3A6E2DA016
:1004F80006D0305037263150382232503922D89021
:100508002F322E322D32D8903932383237323A2EB5
:10051800EED737C013F038C014F039C015F036C024
:1005280016F03BC017F0C5EC04F013C02DF014C052
:100538002EF015C02FF0120000016629030E67592E
:10054800D8B0120045C068F046C069F047C06AF0EC
:1005580048C06BF0020ED890683769376A376B3736
:10056800E82EF9D768C017F069C018F06AC019F00A
:100578006BC01AF0000E136E120E146E7A0E156E02
:10058800000E166E5FEC04F013C021F014C022F0C8
:1005980015C023F016C024F01CEC05F021C030F083
:1005A80022C031F023C032F0C00E216E7F0E226EC1
:1005B800440E236E66C01BF067C01CF01EEC06F0EC
:1005C8001BC01EF01CC01FF01DC020F015EC03F06E
:1005D8001EC02DF01FC02EF020C02FF026EC02F018
:1005E8002DC03CF02EC03DF02FC03EF0AAEC01F02B
:1005F8003CC066F03DC067F0000166A102D0BA8A2F
:1006080001D0BA9ABA9866C068F067C069F000016C
:10061800D89069336833D890693368336851BB6EB2
:10062800120020C024F0256A266A1F34243601E30C
:10063800258024502B6E2B50D8A407D0000E1E6E98
:10064800000E1F6E000E206E120023C024F0256AD3
:10065800266A2234243601E3258024502C6E2C503F
:10066800D8A407D0000E1E6E000E1F6E000E206E5E
:100678001200000E286E000E296E000E2A6E2C50F5
:10068800890F2B5E20C02CF023502C1A800E2C16BC
:100698001F8EFF0E1E16FF0E1F16000E2016228E2E
:1006A800FF0E2116FF0E2216000E2316180E276EB7
:1006B800D890283629362A3621501E5C22501F58D9
:1006C80023502058D8A007D021501E5E22501F5A10
:1006D8002350205A2880D8901E361F362036272EC1
:1006E800E7D728C013F029C014F02AC015F02BC092
:1006F80016F02CC017F0C5EC04F013C01EF014C09F
:100708001FF015C020F012000600FACF01F0FBCF51
:1007180002F0E9CF03F0EACF04F0E1CF05F0E2CF31
:1007280006F0D9CF07F0DACF08F0F3CF09F0F4CF0D
:100738000AF0F6CF0BF0F7CF0CF0F8CF0DF0F5CFAD
:100748000EF04CC00FF04DC010F04EC011F04FC06D
:1007580012F09DB09EA021D0020E00017919D8A4F4
:1007680004D00B0E836E030E796F040E7919D8A48A
:1007780004D00B0E836E010E796F020E7B19D8A47C
:1007880004D00E0E836E030E7B6F040E7B19D8A463
:1007980004D00E0E836E010E7B6F9E9012C04FF038
:1007A80011C04EF010C04DF00FC04CF00EC0F5FF58
:1007B8000DC0F8FF0CC0F7FF0BC0F6FF0AC0F4FF2E
:1007C80009C0F3FF08C0DAFF07C0D9FF06C0E2FF7F
:1007D80005C0E1FF04C0EAFF03C0E9FF02C0FBFF58
:1007E80001C0FAFF4C92110002D0194A1A2A19C006
:1007F800D9FF1AC0DAFF200EDE18D8B4F6D719C010
:10080800D9FF1AC0DAFF090EDE18D8B4EED7000EE9
:100818001F6E000E1E6E000E1D6E19C0D9FF1AC085
:10082800DAFF2D0EDE18D8A402D01D2A24D019C054
:10083800D9FF1AC0DAFF2B0EDE18D8A41ED01BD0A1
:100848001EC013F01FC014F0000E166E0A0E156EAF
:10085800E5EC05F019C0D9FF1AC0DAFFDF501B6EAE
:100868001C6A13501B2614501C22D00E1B241E6E0B
:10087800FF0E1C201F6E194A1A2A19C0D9FF1AC068
:10088800DAFFDF5030EC06F0D8B0DAD71D50D8B414
:100898000DD01EC01BF01FC01CF01B1E1C1E1B4AC7
:1008A8001C2A1BC019F01CC01AF012001EC019F037
:1008B8001FC01AF01200000E1C6E1AAE0AD01A1EC3
:1008C800191E181E176C000E182219221A22010E62
:1008D8001C6E16AE0AD0161E151E141E136C000EC2
:1008E800142215221622010E1C1A000E1D6E000E6F
:1008F8001E6E000E1F6E000E206E17501810191075
:100908001A10D8B42AD0010E1B6E06D0D89017360C
:10091800183619361A361B2A1AAEF8D7D8901D364B
:100928001E361F3620361750135C185014581950AD
:1009380015581A501658D8A009D01750135E1850D9
:10094800145A1950155A1A50165A1D80D8901A322E
:100958001932183217321B2EE1D71C50D8B408D0E0
:10096800201E1F1E1E1E1D6C000E1E221F2220226E
:100978001DC013F01EC014F01FC015F020C016F0E3
:1009880012001650D8B405D0135014101510D8A45E
:100998000CD0000E136E000E146E000E156E1200B1
:1009A800162AD890153214321332000E1314186E0A
:1009B800000E1414196EFE0E15141A6E1850191024
:1009C8001A10D8B40CD0ECD7162A010E1326000E34
:1009D8001422000E1522D890153214321332000E4C
:1009E8001314186E000E1414196EFF0E15141A6ED7
:1009F800185019101A10D8B406D0E6D71606D89091
:100A080013361436153614BE03D0020E1660F6D708
:100A180016A0149ED8901632165015121750D8A446
:100A2800158E13C013F014C014F015C015F0120081
:100A3800000E2A6E8E0E296E24AE11D0241E231E9F
:100A4800221E216C000E222223222422010E2A6E4D
:100A580006D0D8902432233222322132292A000E9D
:100A68002114256E000E2214266E000E2314276E04
:100A7800FF0E2414286E2550261027102810D8A4FD
:100A8800E8D721C013F022C014F023C015F029C004
:100A980016F02AC017F0C5EC04F013C021F014C0FA
:100AA80022F015C023F01200000E136E120E146E01
:100AB8007A0E156E000E166E45C021F046C022F063
:100AC80047C023F048C024F0020ED89021362236C1
:100AD80023362436E82EF9D7020ED890213622364E
:100AE80023362436E82EF9D721C017F022C018F093
:100AF80023C019F024C01AF05FEC04F01304CB6E85
:100B0800BA86BA84CA80CA9294921200176E0C0EE2
:100B1800176405D0000E146E000E136E1200C50E79
:100B2800C2161738E842F80BC212060E156E300EC0
:100B3800E82EFED7152EFCD700D0C282C2B2FED74F
:100B4800C450166E156AC3501524136E000E162075
:100B5800146E1200C80EF66E0C0EF76E000EF86ECC
:100B680000EE45F010EE04F00900F5CFEEFFE55079
:100B7800E150FAE100017B6B7A6B796B786B776BEC
:100B88004B6A4A6A496A4C904C92000EF86E000112
:100B980009EF00F0000E186E000E176E0BD01750FC
:100BA8001324D96E18501420DA6E60EC06F0DF6E4C
:100BB800174A182A1550175C16501858D8B0120042
:100BC800EED713501502F3CF17F0F4CF18F01350E7
:100BD8001602F350182614501502F350182617C0A1
:100BE80013F018C014F01200000E156E0CD0880E09
:100BF800135C130E1458D8B003D0134A142A03D028
:100C0800010E156E02D082B0F2D715501200000EF8
:100C1800156E0CD0880E135C130E1458D8B003D080
:100C2800134A142A03D0010E156E02D081B0F2D7F0
:100C3800155012001BC013F01CC014F0156A8E0E5C
:100C4800166E000E176EC5EC04F013C01BF014C02E
:100C58001CF015C01DF01200156E000E146E3A0E31
:100C6800156005D02F0E156402D0010E146E14C045
:100C780013F013301200959095929594959694924E
:100C88009480938083908392839483961200C08487
:100C9800C092C090C280C08E13C049F014C04AF000
:100CA80015C04BF01200CD88CD9ACD86CD92000E9E
:100CB800CF6E000ECE6E12009EAAFED7AE50120066
:040CC800D007000051
:020000040020DA
:08000000FFFFFFFFFFFFFFFF00
:020000040030CA
:0E00000000051F1EFF8185FF0FC00FE00F409F
:00000001FF
