:100000000C941A010C9437010C9437010C943701AD
:100010000C9437010C9437010C9437010C94370180
:100020000C9437010C9437010C9437010C94370170
:100030000C9437010C9437010C9437010C94370160
:100040000C9437010C9437010C9437010C94370150
:100050000C943701000000000000005F0000000762
:10006000000700147F147F14242A7F2A1223130808
:10007000646236495522500005030000001C2241ED
:10008000000041221C00082A1C2A0808083E080813
:100090000050300000080808080800303000002038
:1000A000100804023E5149453E00427F4000426133
:1000B0005149462141454B311814127F10274545BF
:1000C00045393C4A494930017109050336494949D6
:1000D00036064949291E0036360000005636000013
:1000E00000081422411414141414412214080002AC
:1000F00001510906324979413E7E1111117E7F4935
:100100004949363E414141227F4141221C7F4949B4
:1001100049417F090901013E414151327F080808E8
:100120007F00417F41002040413F017F0814224170
:100130007F404040407F0204027F7F0408107F3EE2
:100140004141413E7F090909063E4151215E7F0937
:10015000192946464949493101017F01013F404083
:10016000403F1F2040201F7F2018207F6314081469
:10017000630304780403615149454300007F414112
:10018000020408102041417F0000040201020440E3
:1001900040404040000102040020545454787F48FD
:1001A0004444383844444420384444487F38545404
:1001B0005418087E090102081454543C7F080404B2
:1001C0007800447D40002040443D00007F102844DA
:1001D00000417F40007C041804787C0804047838CF
:1001E000444444387C14141408081414187C7C0803
:1001F0000404084854545420043F4440203C4040E8
:10020000207C1C2040201C3C4030403C44281028CE
:10021000440C5050503C4464544C44000836410057
:1002200000007F0000004136080008082A1C08086A
:100230001C2A080811241FBECFE5D4E0DEBFCDBFC5
:1002400010E0A0E6B0E0E4E6F4E002C005900D9214
:10025000AA36B107D9F720E0AAE6B0E001C01D92A6
:10026000AC36B207E1F70E9425020C9430020C94E0
:100270000000882319F0813019F00895A898089596
:10028000A9980895882319F0813019F00895A89A43
:100290000895A99A0895CF93DF93C82F1ABAAA9AFE
:1002A000AB980E943901AC9A85E08A95F1F700007D
:1002B000D9B3AC988C2F0E9442018D2FDF91CF9142
:1002C0000895CF93DF93D82FC62F8C2F0E944B0118
:1002D0008823DCF38FEF8ABBAB98AA988C2F0E94FF
:1002E0003901DBBBAC9A85E08A95F1F70000AC9848
:1002F0008C2F0E944201DF91CF910895CF93C82F98
:1003000080916B0082958695869583700E944B0143
:100310008823B4F38FEF8ABBAA98AB9ACBBB8091AA
:100320006B0082958695869583700E943901AC9A00
:1003300085E08A95F1F70000AC9880916B0082957A
:100340008695869583700E94420180916B008F5F35
:1003500080936B00CF91089584B38F6384BBAD9A73
:10036000A89AA99A08950E94AC0160E08FE30E94C8
:10037000610161E08FE30E94610108951F93CF93B3
:10038000DF93D82FC62F80936B0060936A0060E0E4
:1003900080E40E946101C86B60E08C2F0E946101C3
:1003A00060E080EC0E94610161E080E40E946101F4
:1003B00061E08C2F0E94610161E080EC0E9461018C
:1003C0001D2F12951695169513708D2F8F73612F13
:1003D00080640E946101612F8C2F0E946101DF9176
:1003E000CF911F9108950F931F93CF93DF93805266
:1003F00090E0EC01CC0FDD1FCC0FDD1F8C0F9D1F9B
:10040000EC01CC5ADF4F8E010B5F1F4FFE01849130
:100410000E947E012196C017D107C1F780E00E949B
:100420007E01DF91CF911F910F910895CF93DF93BC
:10043000EC018881882331F021960E94F301899193
:100440008111FBCFDF91CF9108950E94B30165E048
:1004500085E00E94BE0180E690E00E941602FFCF78
:04046000F894FFCF3E
:0A04640048656C6C6F212121000037
:00000001FF
