:100000000C942A000C943F000C943F000C943F0089
:100010000C943F000C943F000C943F000C943F0064
:100020000C943F000C943F000C943F000C943F0054
:100030000C943F000C943F000C943F000C943F0044
:100040000C943F000C943F000C943F000C943F0034
:100050000C943F0011241FBECFE5D4E0DEBFCDBF1E
:1000600013E0A0E6B0E0EAE7F2E002C005900D92EE
:10007000A63AB107D9F70E9415010C943B010C94E4
:1000800000008BBB82E08A95F1F700C0AC9A82E059
:100090008A95F1F700C0AC9882E08A95F1F700C02C
:1000A00008958BBBAA9A82E08A95F1F700C0AC9ABA
:1000B00082E08A95F1F700C0AC98AA980895CF9392
:1000C000DF93A898A998D8EB8D2F0E944100C0E437
:1000D0008C2F0E94410080E00E945100CF5FC03809
:1000E000B9F7DF5FD03C81F7A89AA99ADF91CF9149
:1000F0000895CF93C62F603418F4A898A99A03C026
:10010000A998A89AC05488540E94410080E48C0F9A
:100110000E944100CF9108958FEF8ABB84B38F6313
:1001200084BBAD9A87EC90E00197F1F700C0000026
:100130008FE30E94410080E40E94410088EB0E940E
:10014000410080EC0E9441000895FF920F931F939D
:10015000CF93DF93442314F0405201C0405695B32F
:10016000916295BBA9988034E8F46623DCF0F62E02
:10017000082F50E0EA01CC0FDD1FCC0FDD1FC40FAC
:10018000D51FC858DF4F10E06F2D610F802F0E94E0
:100190007900153018F488810E9451001F5F219664
:1001A000153091F7DF91CF911F910F91FF90089536
:1001B000CF92DF92EF92FF920F931F93CF93DF9333
:1001C0008930F8F46623ECF0F22E6A01C62FD82F9E
:1001D0000E947900FF20A9F086012FEF2F0DE22E5B
:1001E000F12C8FEFE81AF80AEC0CFD1CF801419194
:1001F0008F016C2F8D2F0E94A500CA5F0E151F0561
:10020000A9F7DF91CF911F910F91FF90EF90DF90B1
:10021000CF900895FA0101900020E9F731979F01EE
:10022000241B350B0E94D8000895CF93DF93CDB7E0
:10023000DEB768970FB6F894DEBF0FBECDBF88E17A
:10024000E0E6F0E0DE01119601900D928A95E1F76B
:100250000E948C000E945F0048E953E060E080E06B
:100260000E940A012BE0AE014F5F5F4F60E081E02A
:0A0270000E94D800FFCFF894FFCFE2
:10027A00CFF0E8E2E5F220ECE8F00000CFEEEAE0A9
:10028A00202020ECE8F00000000000000000004FF1
:10029A0000000007000700147F147F14242A7F2A15
:1002AA0012231308646236495522400005030000F0
:1002BA00001C2241000041221C0014083E081408B8
:1002CA00083E0808005030000008080808080060C6
:1002DA0060000020100804023E5149453E00427F5A
:1002EA00400042615149462141454B311814127F61
:1002FA001027454545393C4A4949300171090503EA
:10030A003649494936064949291E00363600000051
:10031A005636000008142241001414141414004123
:10032A002214080201510906324971413E7E111117
:10033A00117E7F494949363E414141227F4141224E
:10034A001C7F494949417F090909013E4149493A06
:10035A007F0808087F00417F41002040413F017F1C
:10036A00081422417F404040407F020C027F7F04F4
:10037A0008107F3E4141413E7F090909063E41512D
:10038A00215E7F09192946464949493101017F0100
:10039A00013F4040403F1F2040201F3F4070403FE8
:1003AA00631408146307087008076151494543003C
:1003BA007F41410002040810200041417F000402ED
:1003CA00010204404040404000010204002054540D
:1003DA0054787F484444383844444428384444488C
:1003EA007F3854545418087E0901020C5252523E66
:1003FA007F0804047800447D40002040443D007F8B
:10040A001028440000417F40007C041804787C08CE
:10041A0004047838444444387C1414140808141426
:10042A00187C7C080404084854545420043F44406F
:10043A00203C4040207C1C2040201C3C4030403C5A
:10044A0044281028440C5050503C4464544C4400F6
:10045A000836410000007F00000041360800020112
:10046A0002020100000000007E1111117E7F49493D
:10047A0049337F494949367F01010103E0514F4120
:10048A00FF7F4949494177087F08774149494936F9
:10049A007F1008047F7C2112097C7F0814224120E6
:1004AA00413F017F7F020C027F7F0808087F3E419F
:1004BA0041413E7F0101017F7F090909063E414111
:1004CA00412201017F010147281008071C227F22CF
:1004DA001C63140814637F404040FF070808087F24
:1004EA007F407F407F7F407F40FF017F4848307FC9
:1004FA004830007F007F484830224149493E7F0802
:10050A003E413E462919097F20545454783C4A4AB0
:10051A0049317C545428007C0404040CE0544C44B3
:10052A00FC38545454186C107C106C4444545428AD
:10053A007C2010087C7C4122117C7C1028440020FD
:10054A00443C047C7C0810087C7C1010107C3844E5
:10055A004444387C0404047C7C141414083844444D
:10056A00442804047C04040C5050503C3048FC4895
:10057A003044281028447C404040FC0C1010107C69
:10058A007C407C407C7C407C40FC047C5050207C3D
:10059A005050207C7C5050200028445454387C1001
:1005AA00384438085434147C48656C6C6F20576F93
:0605BA00726C64200000D9
:00000001FF
